:100000000C9435030C9452030C9452030C94520339
:100010000C9452030C9452030C9452030C9452030C
:100020000C9452030C9452030C94E6190C94A219EC
:100030000C948A300C9452030C9452030C94520387
:100040000C9452030C9452030C9452030C945203DC
:100050000C9452030C94AD150C9452030C9452035F
:100060000C9452030C9452030C9452030C945203BC
:100070000C9452030C9452030C9452030C945203AC
:100080000C9452030C9452030C9452030C9452039C
:100090000C9452030C9452030C9452030C9452038C
:1000A0000C9452030C9452030C945203000101016E
:1000B0000101010101010202020202020202020325
:1000C00003030303030303040404040404040505F5
:1000D00005050506060606060707070707080808B8
:1000E00008090909090A0A0A0B0B0B0C0C0C0D0D67
:1000F0000D0E0E0E0F0F0F101011111112121313FF
:100100001414151516161717181819191A1A1B1B77
:100110001C1D1D1E1E1F20202122222324242526D3
:1001200026272829292A2B2C2D2D2E2F303132320B
:10013000333435363738393A3B3C3D3E3F40414217
:10014000434445464748494A4C4D4E4F50515354FD
:10015000555658595A5B5D5E5F61626465666869B1
:100160006B6C6D6F7072737577787A7B7D7E808231
:10017000838587888A8C8E8F91939596989A9C9E7A
:10018000A0A2A3A5A7A9ABADAFB1B3B5B7BABCBE8A
:10019000C0C2C4C6C9CBCDCFD1D4D6D8DBDDDFE257
:1001A000E4E7E9EBEEF0F3F5F8FAFDFF29002B00A8
:1001B0002A00E100E00000001E00140004001D61A0
:1001C000E2004D001F001A0016001B00E3004C0067
:1001D000200008000700060035002C002100150053
:1001E00009001900E3004A00220017000A00050078
:1001F000000050002F02260200002C0800004F00D3
:1002000030022702000000070000520023001C00FB
:10021000025711000000510024001800035710007D
:1002200052004B0025000C000457360051002800F6
:1002300026001200055737002F002B00005713002F
:100240003342387130004E00015731003400E50070
:10025000015300002900010001000100010000001D
:100260003A001E02200222022E002E5D3B001F02D9
:10027000210223020100C95C3C002F0226022F004C
:100280000100CA5C3D0030022702300001002D5DF4
:100290003E003102350035020000C35C0100010060
:1002A0000000010000002C5D0100010000000100C1
:1002B0000000C25C3F0052005100240200002B5D90
:1002C0004000240021001E00010001004100250023
:1002D00022001F003700C55C4200260023002000DA
:1002E0002700C65C430025022E0231002E000100CB
:1002F0004400450001000100010000000100010070
:1003000001000100010000000100010001000100E6
:10031000085D010001000100F20001000100010080
:100320000100F000F1000100F400010001000100F3
:10033000F3000100F50001000100010001000100CF
:1003400000000100010001000000010000000100A8
:100350000100010000000100000001000100010097
:100360000100010000000100010001000100010086
:10037000A9000100010001000100AC00AA00B600C4
:10038000010001000100AB00A80001000100010014
:100390000100010001000100005C0100AE0001004D
:1003A000010000000A00000000000306B20008007F
:1003B00001000000A800080002000200A0001400D4
:1003C000030057494E555342000000000000000052
:1003D00000008400040007002A0044006500760045
:1003E00069006300650049006E00740065007200DA
:1003F0006600610063006500470055004900440045
:100400007300000050007B003900440042003700B8
:1004100046003100460044002D00370045003700FB
:1004200041002D0034003000300038002D0039002C
:100430003300360042002D003600420041003600F5
:1004400043003100390041003300300038006300C0
:100450007D00000000001B0301636F6E6669677515
:1004600072652E6572676F646F782D657A2E636F83
:100470006D0005010902A10185020901A10005091C
:1004800019012905150025019505750181029501C0
:10049000750381010501093009311581257F950218
:1004A0007508810609381581257F95017508810633
:1004B000050C0A38021581257F950175088106C053
:1004C000C005010980A101850319012AB7001501A2
:1004D00026B700950175108100C0050C0901A10126
:1004E000850419012AA002150126A00295017510A4
:1004F0008100C005010906A1018505050719E0294C
:10050000E7150025019508750181020507190029E5
:10051000EF1500250195F0750181020508190129E3
:1005200005950575019102950175039101C00501BD
:100530000906A101050719E029E71500250195081D
:10054000750181029501750881010507190029FFD0
:10055000150026FF00950675088100050819012978
:1005600005950575019102950175039101C0090278
:100570005200030100A0FA09040000010301010078
:100580000921110100012240000705810308000A2A
:1005900009040100010300000009211101000122EA
:1005A000BC000705820320000A0904020002FF00C4
:1005B000000007058303400005070504034000050C
:1005C0001201100200000008973276490100010272
:1005D000030104033000000020034500720067009F
:1005E0006F0044006F007800200045005A00200092
:1005F00047006C006F007700000030035A00530082
:100600004100200054006500630068006E006F0028
:100610006C006F006700790020004C0061006200F0
:100620007300200049006E00630000000403090409
:10063000050F3900021C100500DF60DDD88945C7B1
:100640004C9CD2659D9E648A9F00000306B20045C3
:10065000001810050038B60834A909A0478BFDA082
:10066000768815B665000142000011241FBECFEF49
:10067000DAE0DEBFCDBF26E0A8E3B4E001C01D9202
:10068000A63EB207E1F714E0A0E0B1E0E4ECF8E642
:1006900002C005900D92A833B107D9F70E94F32C40
:1006A0000C9401340C940000E8EDF0E080818E7F22
:1006B00080831092E2001092DA001092E100A0EE26
:1006C000B0E08C9181608C9380818F77808319BC9E
:1006D000A7EDB0E08C918E7F8C9380818F7E80839C
:1006E0001092A90608952091E4003091E50095E666
:1006F000A9012091EC00822F817020FF06C080911B
:10070000E80080FF06C080E008952091E80022FD07
:100710001AC08091CF06882389F0853089F08091B6
:10072000EB0085FD0FC02091E4003091E5004217F9
:100730005307F9F29150E1F684E0089582E00895BC
:1007400083E0089581E00895EF92FF920F931F9345
:10075000CF937C018B010E947303C82F882371F013
:100760008C2FCF911F910F91FF90EF900895F7017B
:1007700081917F018093F10001501109011511054C
:1007800079F38091E80085FDF2CF8091E8008E77C3
:100790008093E8000E947303882381F3C82FE0CF81
:1007A0008091D10687FF13C08091E80082FF06C0C8
:1007B0008091E8008B778093E80004C08091CF0699
:1007C0008111F2CF08958091CF068823D9F38091CB
:1007D000E80080FFF8CF8091E8008E77ECCF982F6B
:1007E0009093E900242F762F50E0891731F0709113
:1007F000EC002091ED005091F00021FD07C09F5FBB
:10080000973071F78093E90081E008953091EB0013
:100810003E7F3093EB003091ED003D7F3093ED0053
:100820003091EB0031603093EB007093EC0020933B
:10083000ED005093F0002091EE0027FDE0CF80E026
:100840000895CF92DF92EF92FF920F931F93CF9371
:10085000DF93C8EDD0E088818F7E8883E7EDF0E0FC
:1008600080818160808384E082BF81E08093A906DB
:1008700088818E7F888302EE10E0F801108210924A
:10088000DA0081EEC82ED12CF601108288818F7794
:10089000888388818068888388818F7D888319BC5C
:1008A0001092CF061092D0061092CE061092CD066E
:1008B00090EEE92EF12CF70180818B7F8083888177
:1008C0008160888342E060E080E00E94EF03F601EF
:1008D00080818E7F8083F801808181608083808128
:1008E00088608083F70180818E7F8083888180612A
:1008F0008883DF91CF911F910F91FF90EF90DF9050
:10090000CF900895FC018091D7069091D806861764
:100910009707A0F06115710529F48091E8008E77A2
:100920008093E80090E06115710551F4911108C0C1
:100930008091E80082FF35C080E00895BC01F2CFCD
:100940008091CF068823C9F18530C9F18091E800F4
:1009500083FD31C08091E80082FDEACF8091E800FC
:1009600080FFE1CF8091F3002091F200382F6115D4
:10097000710519F02830310558F091E02830310523
:1009800009F090E08091E8008E778093E800CBCF6B
:1009900084918093F1003196615071092F5F3F4F30
:1009A000E6CF8091CF06882341F0853041F08091D9
:1009B000E80083FFBDCF81E0089582E0089583E0E1
:1009C0000895FC018091D7069091D8068617970765
:1009D000A0F06115710529F49091E8009E7790933D
:1009E000E80090E06115710551F4911108C0809103
:1009F000E80082FF34C080E00895BC01F2CF80910E
:100A0000CF068823C1F18530C1F18091E80083FDD4
:100A100030C08091E80082FDEACF8091E80080FF3D
:100A2000E1CF8091F3002091F200382F611571051C
:100A300019F02830310558F091E02830310509F0DF
:100A400090E02091E8002E772093E800CBCF8191B1
:100A50008093F100615071092F5F3F4FE7CF809184
:100A6000CF06882341F0853041F08091E80083FF74
:100A7000BECF81E0089582E0089583E008958091DB
:100A8000AC0608952091CF06243099F423E02093FA
:100A9000E90070E050E040E00E94A403882321F0C8
:100AA0001092A7061092A8068091E8008E77809396
:100AB000E800089590918E06803F59F480918F064A
:100AC00087FF0DC010928F0691110BC010928906FE
:100AD00008C0813F81F480918F0618169CF39923FA
:100AE00081F08091900690919106892B09F064C065
:100AF000109286060895823F49F497FFF0CF109236
:100B00008E0680918F068111ECCFE0CF833F19F4E0
:100B10001916ACF3E4CF20919006893F29F4121600
:100B2000F4F610929006DBCF8A3F19F427FFD7CF57
:100B3000F8CF209191068B3F29F427FFD0CF109258
:100B40009106CDCF8C3F19F41216CCF3C8CF843F59
:100B500031F480918D068E7F80938D06C0CF853FC6
:100B600021F480918D068D7FF7CF863F21F480910F
:100B70008D068B7FF1CF873F21F480918D06877F93
:100B8000EBCF883F21F480918D068F7EE5CF8D3F9E
:100B900031F480915A068E7F80935A06A0CF8E3F03
:100BA00021F480915A068D7FF7CF8F3F09F097CFC0
:100BB00080915A068B7FF0CF089580915A0680FD70
:100BC0001AC081FD14C082FD14C08091860688235E
:100BD00091F08C3370F427E0829FC00111246CE304
:100BE00070E00E94A531862F672B29F0089583E0DD
:100BF000089587E0089581E0089580915A0680FD68
:100C000016C081FD16C082FD18C080918906882318
:100C100091F08C3390F423E2829FC00111246CE3A5
:100C200070E00E94A531862F672B49F0089588E077
:100C3000089581E1089585E0089583E2089581E0B3
:100C40000895803F31F40E94FD05819580938F06C1
:100C50000895813F19F40E94FD05F8CF823F31F4D9
:100C60000E94FD05819580938E060895833F19F4B7
:100C70000E94FD05F8CF893F29F40E94DD0580938D
:100C8000900608958A3F21F40E94DD058195F7CFF3
:100C90008B3F31F40E94DD05819580939106089584
:100CA0008C3F19F40E94DD05F8CF843F31F4809128
:100CB0008D06816080938D060895853F21F4809193
:100CC0008D068260F7CF863F21F480918D06846087
:100CD000F1CF873F21F480918D068860EBCF883F6C
:100CE00021F480918D068061E5CF8D3F31F48091B4
:100CF0005A06816080935A0608958E3F21F48091B0
:100D00005A068260F7CF8F3FB9F780915A06846008
:100D1000F1CF9C014FB7F8948091560690915706F9
:100D2000A0915806B09159064FBF821B930B0895AE
:100D300020919F012223C9F02091730627FF15C03F
:100D4000E62FE695E695E695EE31D8F4E80FF92F13
:100D5000F11D677021E030E001C0220F6A95EAF7CB
:100D600020958281282322830895FC0132960896DB
:100D70002191621303C0DF0111971C92E817F90754
:100D8000B9F7089520919F012223C1F020917306A5
:100D900027FF14C0E62FE695E695E695EE31F8F4C8
:100DA000E80FF92FF11D677021E030E001C0220F3C
:100DB0006A95EAF78281822B82830895FC0132963C
:100DC0002FEF30E04191641751F02F3F19F441119A
:100DD00001C0232F3F5F3630A9F72F3F09F4089554
:100DE000820F911D27FD9A95FC0162830895CF9291
:100DF000DF92EF92FF926C01EE24FF2420E0C114F9
:100E0000D104E104F10419F0C701B60120E1C72EB5
:100E1000D82EE92EFF24C114D104E104F10419F005
:100E2000285FC701B6016B017C0154E0F694E7949A
:100E3000D794C7945A95D1F7C114D104E104F104B1
:100E400019F02C5FC701B6016B017C0142E0F694FA
:100E5000E794D794C7944A95D1F7C114D104E1041B
:100E6000F10419F02E5FC701B60196958795779525
:100E70006795672B682B692B09F02F5F822FFF90F6
:100E8000EF90DF90CF9008958091510681111092DC
:100E9000510608958095909150069823909350069E
:100EA00008958091500690914F06892B90914E069F
:100EB000892B80933804909151069923A1F0892BB6
:100EC0008093380480919F01882341F180917306BB
:100ED00087FF24C08EE1EAE3F4E090E0815000F562
:100EE00091110E944407E0917506F09176063097C3
:100EF000E1F080919F01882359F08091730687FF6C
:100F000007C0809138048093390485E080933804C9
:100F10000280F381E02D88E394E0099486E0DBCF42
:100F200021912223D9F29F5FD9CF0895E92FEE0FA7
:100F3000E90FEE0F8E0F982F977086958695869500
:100F400025E0829FF0011124EA5EF94F50E040E075
:100F500080E0219130E0092E02C0369527950A9451
:100F6000E2F721703327042E01C0220F0A94EAF71A
:100F7000822B4F5F5F4F4530510559F70895E92F98
:100F8000EE0FE90FEE0F8E0F982F977041E001C022
:100F9000440F9A95EAF786958695869595E0899F00
:100FA000F0011124EA5EF94F30E020E070E0519149
:100FB000DF011197CB01022E02C0969587950A9406
:100FC000E2F7817081958527842385278C932F5F95
:100FD0003F4F2530310559F70895809115069091BE
:100FE000E405981301C008958F5F8770FACF8823B6
:100FF00041F0809590914F06892380934F060C9481
:1010000051070895882339F090914F06982B9093BB
:101010004F060C9451070895882321F00E944A0737
:101020000C9451070895882339F090915006982B1D
:10103000909350060C94510708952091C605309165
:10104000C7052817390771F09093C7058093C60527
:10105000E0917506F0917606309721F00084F185D5
:10106000E02D099408952091C4053091C5052817F5
:10107000390771F09093C5058093C405E09175061A
:10108000F0917606309721F00680F781E02D0994E3
:101090000895E0917506F0917606309721F0019061
:1010A000F081E02D099480E00895CF93DF93EC0167
:1010B00081E0898B809150069F81892B8093500617
:1010C00080914F069885892B80934F060E94510787
:1010D000EA81FB81309739F06C897D89CE010696D3
:1010E000DF91CF910994DF91CF910895EF92FF9214
:1010F0000F931F93CF93DF93EC018A85811139C041
:10110000EB80FC8087E5F81A26E12E9DC0012F9D1B
:10111000900D1124DC01A25FBE4F1496ED91FC915D
:101120001597309731F054966D917C918C5E9E4F5F
:10113000099586E18E9D80018F9D100D1124025F1F
:101140001E4FF80187810E944A07F8018085982F79
:10115000909580914F06892380934F060E945107F6
:10116000188219861B861E821D821092D705109246
:10117000D605DF91CF911F910F91FF90EF900895C9
:10118000FA01811101C0FB0109948033910538F502
:10119000880F991F880F991FFC01E554FE4F52815B
:1011A000338180818370E181A82FB0E070E9879F4F
:1011B000C001112484589B4FE80FF92FF11DB497FB
:1011C0006083FC01E50FF11DB4974083830F911DEF
:1011D000FC01B4972083A658BB4F81E08C930895FF
:1011E000FF920F931F93CF93DF93182F062FF42EA8
:1011F000D0E0C0E02F2D402F612FCE010E94C50806
:101200002196C033D105B1F7DF91CF911F910F9196
:10121000FF9008950C94F0080C94C5080F931F9349
:1012200010E0F801EE0FFF1FE855FC4F908190573A
:1012300097FD9195000F111FF801E755FC4F0081B4
:101240000052110B2003F001219FF00D112408E33F
:1012500010E0091B110997FD139540039001419F70
:10126000300D1124E20FF31F9F01220F331F2E0FA9
:101270003F1F37FF02C021583F4F220F232F221F4D
:10128000330B620F1F910F9108950F931F93522FED
:1012900010E0F801EE0FFF1FE755FC4FA081A052B0
:1012A000BB0B9D015203F001539FF00D1124000F61
:1012B000111FD801A855BC4F0C910057110B4003CA
:1012C0009001419F300D11242E0F3F1F37FF02C0A8
:1012D000215C3F4F96E0359527959A95E1F7620F8F
:1012E0001F910F9108950F931F93522F10E0F80153
:1012F000EE0FFF1FE755FC4FA081A052BB0B9D01D5
:101300005203F001539FF00D1124000F111FD8015B
:10131000A855BC4F0C910057110B40039001419F01
:10132000300D11242E0F3F1F37FF02C021583F4FB1
:10133000220F232F221F330B620F1F910F9108954D
:10134000EF920F93972F23E0029FB0011124759520
:1013500067956E0D792F0F91EF900895322F50E021
:10136000FA01EE0FFF1FE755FC4F9081905297FD59
:101370009195440F551FFA01E855FC4F2081231B1E
:10138000330B290F311D97FD3A95620F0895E42F15
:10139000F0E0EE0FFF1FE755FC4F6081621B0895E0
:1013A000E42FF0E0EE0FFF1FE855FC4F6081621B59
:1013B0000895622F0895E42FF0E0EE0FFF1FE85527
:1013C000FC4F408134EE439F412D1124E82FF0E083
:1013D00050E0445E5F4FDA01A21BB1099D01B7FFE7
:1013E00003C031952195310993E0220F331F9A955F
:1013F000E1F7AF01421B530B9A0157FD20E0582F34
:10140000259F212D1124822F0895E42FF0E0EE0F67
:10141000FF1FE855FC4F408134EE439F412D1124BE
:10142000E72FF0E050E0445E5F4FDA01A21BB10904
:101430009D01B7FF03C031952195310993E0220F3B
:10144000331F9A95E1F7AF01421B530B9A0157FDE9
:1014500020E0279F212D1124722F0895FC019B016C
:10146000009729F480E077FF2BC080E80895AC0155
:1014700097FF04C044275527481B590BB901640F37
:10148000751F37FD10C0241B350BC901A5E0880F5F
:10149000991FAA95E1F70E94A53180E2861BF7FF0C
:1014A0000FC081950895CB0165E0880F991F6A955B
:1014B000E1F7BA01621B730B0E94A53180E6EECF03
:1014C0000895EF920F93CF93DF93D72FC82FC901C1
:1014D0000E19BA010E942E0A602F681B7D2F8C2FD7
:1014E000DF91CF910F91EF9008950F93CF93DF93FA
:1014F000D72FC82FC901BA010E942E0A682F600F8A
:101500007D2F8C2FDF91CF910F910895EF920F9344
:101510001F93CF93DF93D62FC72F182FC9010E1912
:10152000010FBA010E942E0A081B202F219F212D96
:101530001124822F6D2F7C2FDF91CF911F910F915E
:10154000EF900895EF920F931F93CF93DF93D62FD1
:10155000172FC82FC9010E19070FBA010E942E0AB2
:10156000702F781B719F712D11246D2F8C2FDF919F
:10157000CF911F910F91EF9008950F931F93CF93E9
:10158000DF93D62FC72F182FC901212F201B022F21
:10159000BA010E942E0A982F990F990F891B800F6C
:1015A000282F219F212D1124822F6D2F7C2FDF9139
:1015B000CF911F910F9108950F931F93CF93DF93B6
:1015C000D62F172FC82FC901272F201B022FBA0192
:1015D0000E942E0A982F990F990F782F791B700F60
:1015E000719F712D11246D2F8C2FDF91CF911F9141
:1015F0000F910895E82F86FDE0952E2F2F7086FD20
:101600002F5FE695E695E695E670F0E0ED54FE4F27
:101610009181929F902D212D112492959F7022955A
:10162000207F922B2081920F87FD919580E8890F72
:101630000895AC018230910508F408959FEF413E72
:101640008EE1580740F49A0195E0369527959A95D2
:10165000E1F798E0920F61E0E62FE90FFF27FF1F07
:101660009F0135952795822F229FF001239FF00D32
:10167000F00D11244E175F0738F49FEF920F961765
:1016800058F78FEF860F08952F3FE9F361E0620F5F
:10169000F6CF0F93CF93DF93D72FC82F47FD4195F8
:1016A00088E390E0841B910947FD9395889FB001E2
:1016B000899F700D700D1124229FC001239F900DF2
:1016C000900D1124860F971F0E94190B982F990FC8
:1016D000890F682F600F7D2F8C2FDF91CF910F9195
:1016E000089530E020E0869F212D969F200D311D2A
:1016F0001124C9010895AF92BF92CF92DF92FF9259
:101700000F931F93CF93DF93362F472FE82FF0E0EF
:10171000E455FF4F71110FC0E4918E2F2E2F6E2FC5
:10172000722FDF91CF911F910F91FF90DF90CF909B
:10173000BF90AF900895C72FD0E02491F22E022FD2
:1017400010E056E0659FC0011124EFEFF0E0BF010B
:101750000E949131832F90E0880F991F35E5369FC5
:10176000D001379FB00D11248A1B9B0B982F990F26
:10177000980F6F01CC1ADD0AC09ED001C19EB00D3A
:10178000D09EB00D11248B2F499FA0011124452F0D
:1017900055276F01C41AD50AC09EA001C19E500DE5
:1017A000D09E500D11245F01A91AB108AC9E6001B2
:1017B000AD9ED00CBC9ED00C1124CD2CDD24EC1998
:1017C000FD09E09FE001E19FD00DF09FD00D1124B5
:1017D000ED2F62307105A1F050F46115710509F427
:1017E0009ECF6130710581F0EB2F852F98CF64304B
:1017F000710569F080F06630710509F490CFF4CF7F
:10180000E22F2B2F8D2F8BCFE22F252F88CFEB2F81
:10181000822F2D2F84CF2B2F8F2DE52F80CF9F92BE
:10182000AF92BF92CF92DF92EF92FF920F931F93EE
:10183000CF93DF936C018091A001C82FCC0FCC0F08
:10184000C80F15E01C0FB12E113310F030E3B32E8A
:101850006091E106669566958091D9069091DA06C9
:101860000E94710BF82E80E48F0D0E94FA0A90E816
:10187000A92EA80E8F2D0E94FA0A20E8922E980E0B
:10188000D0E0CB1580F081E0103308F080E0DF91EC
:10189000CF911F910F91FF90EF90DF90CF90BF906D
:1018A000AF909F900895FE01E85FFB4F808190917B
:1018B000A1018923A1F06091DE067091DF0680917D
:1018C000E006EF2C0C2F292D4A2DF60109950E94D8
:1018D0007B0B462F282F672FCE010E940C092196E3
:1018E000D0CF7F928F929F92AF92BF92CF92DF9292
:1018F000EF92FF920F931F93CF93DF935C01809140
:10190000A001C82FCC0FCC0FC80F15E01C0FF12E73
:10191000113310F030E3F32E6091E106669580916B
:10192000D9069091DA060E94710B782ED0E0CF157F
:1019300090F081E0103308F080E0DF91CF911F91AB
:101940000F91FF90EF90DF90CF90BF90AF909F905E
:101950008F907F900895FE01E85FFB4F808190910A
:10196000A1018923C9F1CE01880F991F8C5A9C4F80
:10197000FC01EC5AFF4F2081422F4057550B6A0162
:101980008B5A9F4FFC018081282F2052330B490135
:10199000449F9001459F300D300D1124889CC0015B
:1019A000899C900D900D1124820F931F0E94190B9A
:1019B000082F6091DE067091DF068091E006E72C2B
:1019C0009401A601F50109950E947B0B462F282F53
:1019D000672FCE010E940C092196A9CFCF92DF92EA
:1019E000EF92FF920F931F93CF93DF937C0180912F
:1019F000A001C82FCC0FCC0FC80F15E01C0FD12EA3
:101A0000113310F030E3D32E6091E106669580919A
:101A1000D9069091DA060E94710BC82ED0E0CD1540
:101A200068F081E0103308F080E0DF91CF911F91E2
:101A30000F91FF90EF90DF90CF900895FE01E85F47
:101A4000FB4F80819091A101892311F1CE01880F74
:101A5000991F8C5A9C4FFC01EB5AFF4F208120525A
:101A6000330B8C5A9F4FFC0140814057550B6091BE
:101A7000DE067091DF068091E0060C2DF7010995D6
:101A80000E947B0B462F282F672FCE010E940C0946
:101A90002196C5CFDF92EF92FF920F931F93CF93C2
:101AA000DF937C018091A001C82FCC0FCC0FC80F11
:101AB00015E01C0F012F113308F000E36091E106DF
:101AC000669566958091D9069091DA060E94710B11
:101AD000D82ED0E0C01760F081E0103308F080E02D
:101AE000DF91CF911F910F91FF90EF90DF900895BC
:101AF000FE01E85FFB4F80819091A101892391F065
:101B00006091DE067091DF068091E0062D2D4C2F4E
:101B1000F70109950E947B0B462F282F672FCE01D6
:101B20000E940C092196D6CF9091730692FF06C0B1
:101B3000282F28712830F9F4877F846093FF06C02E
:101B4000282F28712831F1F4877E84612091740652
:101B500020FF06C0382F38713830D9F4877F816074
:101B600021FF06C0282F28712831D1F4877E81619A
:101B700094FD877E0895282F24712430F9F68B7FF9
:101B80008860DCCF282F2471243101F78B7E886197
:101B9000DDCF382F3171313019F78E7F8860E0CF7B
:101BA000282F2171213121F78E7E8861E1CFCF93DB
:101BB000DF93972F70E026E0929F600D711D112436
:101BC000FB0134E5839FE00DF11D1124EE0FFF1F93
:101BD000E455FE4FC591D491CE01C238D105B9F17B
:101BE000E8F5C133D10509F499C050F5C932D105E2
:101BF00009F48DC0CA32D10509F497C0C11542E578
:101C0000D40708F0C4C0C11521E5D20708F038C1D7
:101C1000C83ED10508F09DC0C03ED10568F5C83A60
:101C2000D10508F089C0C53AD10508F005C1C13019
:101C3000D10511F1209709F443C02497E8F440C07E
:101C4000C533D10509F45CC0C933D105B9F620917B
:101C50007306237089F080EE90E00EC0C33ED1057C
:101C600091F168F4C03ED105F9F0C23ED10531F6DC
:101C70002091730622FD20C0DF91CF910895C63ECA
:101C8000D10561F1C73ED10581F1C43ED10509F00E
:101C9000B5CF2091740621FFEFCF8091730684FDAC
:101CA0000FC087EE90E0E8CF2091730620FD19C1A8
:101CB0003091740630FFE0CF83EE90E024FFDCCF5C
:101CC00090E080E0D9CF2091730622FD0DC13091C4
:101CD000740630FDC0CF24FFCFCFF2CF2091730622
:101CE00023FFCACF24FDECCFDCCF2091730623FD68
:101CF000FEC03091740631FFEECF84EE90E0BCCF91
:101D00002091730625FFB8CF89E290E0B5CF2091EE
:101D1000730625FFB1CF85E390E0AECF2091730627
:101D200026FFAACF8AE290E0A7CF2091730626FF74
:101D3000A3CF81E390E0A0CFCF3BD10508F6C85AEE
:101D4000D0E0CC0FDD1FCA5DDC4F8881998194649F
:101D500093CFC11530E2D30760F4C11541E0D40739
:101D600008F08ACFCE019065C03FD10508F084CF3E
:101D7000A7CFC11580E4D80708F4A2CFC11590E51C
:101D8000D90708F061C0CE019F70906A75CFC11568
:101D900026E5D20718F5C11535E5D30708F086C04A
:101DA000C11544E5D40708F07CC09C2F9695969504
:101DB000AE0143705527C115D34508F466C021E034
:101DC00030E002C0220F331F4A95E2F740E2949FB1
:101DD000C0011124822B932B9A684ECFC1159AE52E
:101DE000D90778F4C11529E5D20708F069C0C115F3
:101DF00038E5D30708F464CF9C2F8827806F906A5A
:101E00003BCFC1154BE5D40708F45ACFC1158CE57B
:101E1000D80708F462C0CE0190568115904208F0B0
:101E20004FCF8D2F8F710E94940D90E0982F8827AF
:101E300088279F718C2B42C0C55AD0E0CD5DDC4F06
:101E4000888190E0906418CF9E01E4E03695279554
:101E5000EA95E1F723708C2F86958695837030E2A2
:101E6000839FC0011124922BC37021E030E002C097
:101E7000220F331FCA95E2F7822B932B9C68FCCE6E
:101E80009C2F8827816F906AF7CE21E030E002C056
:101E9000220F331F4A95E2F740E2949FC0011124BC
:101EA000EBCF9C2F8827846F906AE6CE8C2F0E9400
:101EB000940D90E0982F882788279F719062DCCE40
:101EC0008C2F8F700E94940D34E0D695C7953A956B
:101ED000E1F7CF709C2F9069CFCECE019927906605
:101EE000CBCE89E390E0C8CE82EE90E0C5CE86EE00
:101EF00090E0C2CEBF92CF92DF92EF92FF920F930B
:101F00001F93CF93DF938C01C090A206D090A306BD
:101F1000E090A406F090A506809152069091530699
:101F2000A0915406B0915506C82AD92AEA2AFB2A5C
:101F3000CFE1D0E0BC2ED701C6010C2E04C0B6956F
:101F4000A795979587950A94D2F780FD0EC02197A3
:101F500088F7B12C8B2DDF91CF911F910F91FF90BE
:101F6000EF90DF90CF90BF900895B8018C2F0E9422
:101F7000D70D019761F3EECFCF93DF93EC010E9471
:101F80007A0FBE01DF91CF910C94D70D0E94BC0F48
:101F9000292F2F7092959F7092509E3078F4E92FE0
:101FA000F0E0ED5FFB4C0C94B931803F19F020F468
:101FB000883E20F481E00895843FE1F380E00895B5
:101FC000883EC0F3813FD1F7F5CF822F8695869565
:101FD000869508959C019A9581159F4130F4832F31
:101FE000817031FD8260FB0109940895FC018081BC
:101FF000813041F49185911114C09285992389F023
:1020000082E00895823041F48185811107C0828584
:10201000811106C083E0089586E0089585E0089563
:1020200084E0089527982F98089526982E9808956B
:1020300025982D98089556985E980895279A2F9A76
:102040000895269A2E9A0895259A2D9A0895CF924A
:10205000DF92EF92FF92CF936B017C010E94F70613
:10206000C82F0E941B100E9418100E9415100E9479
:102070001210C150C73040F4EC2FF0E0EF5EFB4C83
:102080000C94B9310E942410C701B601CF91FF9082
:10209000EF90DF90CF9008950E9424100E942110AD
:1020A000F3CF0E9424100E941E10EECF0E94241035
:1020B0000E942110F8CF20982898219829982298DA
:1020C0002A9823982B9852985A9853985B983E9840
:1020D000469808958098889A8198899A84988C9ACD
:1020E00085988D9A86988E9A87988F9A0895CF931F
:1020F00084E090E00E945633C82F81E290E00E9475
:102100005633982F8C2FCF910895CF93DF9300D023
:102110000F92CDB7DEB79091CF06943019F5898331
:102120007B836A8382E08093E9008FEF9091E800DF
:10213000815095FD06C095ED9A95F1F7000081114B
:10214000F5CF8091E80085FF0DC050E040E063E0EE
:1021500070E0CE0101960E94A4038091E8008E7782
:102160008093E8000F900F900F90DF91CF9108952A
:10217000BC0184E00C948510BC0183E00C948510B4
:102180009C0182E08093E9009FEF8091E8009150EC
:1021900085FD06C085ED8A95F1F700009111F5CF18
:1021A0008091E80085FF0CC050E040E066E070E000
:1021B000C9010E94A4038091E8008E778093E80013
:1021C0000895CF93DF93EC0180919F018823B1F1B3
:1021D0008091730687FF32C060E282E08093E9005D
:1021E0008FEF9091E800815095FD06C095ED9A958E
:1021F000F1F700008111F5CF8091E80085FF1BC049
:1022000080919F0170E050E040E0811104C050E0F7
:1022100040E068E070E0CE010E94A4038091E800F5
:102220008E778093E80080E2FE01ADEAB6E001908F
:102230000D928A95E1F7DF91CF91089568E081E0F2
:10224000CDCFEF92FF920F931F93CF93DF930E9416
:102250001B100E9418100E9415100E94121088E88E
:10226000E82EF12C8FEF90E0F701918380830AE84C
:1022700010E0F80191838083CCE8D0E099838883D3
:102280000E942410FFEF20E782E0F15020408040C0
:10229000E1F700C000000E9421109FEFE0E7F2E0AC
:1022A0009150E040F040E1F700C000000E941E1095
:1022B0002FEF80E792E0215080409040E1F700C08E
:1022C00000000E941810EFEFF0E722E0E150F0402C
:1022D0002040E1F700C000000E9415108FEF90E74A
:1022E000E2E081509040E040E1F700C000000E9431
:1022F0001210809161068770FFEF8F9FC00111243B
:1023000095958795959587959927F7019183808372
:10231000F80191838083998388830E941B100E9417
:1023200018100E941510DF91CF911F910F91FF900F
:10233000EF900C9412106FEE7EEF90E080E00E9420
:10234000983360E082E090E00E947A3360E083E0BE
:1023500090E00E947A331092520610925306109227
:1023600054061092550660E084E090E00E947A33B3
:1023700060E081E290E00E947A3360E085E090E0E6
:102380000E947A3360E086E090E00E947A336FEF3B
:1023900087E090E00E947A3340E050E0BA0188E0A4
:1023A00090E00E948C3360E08DE090E00E947A33F0
:1023B00040E050E0BA0188E190E00E948C3360E098
:1023C00087E190E00E947A3340E050E0BA018CE16E
:1023D00090E00E948C3360E080E290E00E947A33CB
:1023E00010926106109262061092630610926406C3
:1023F00084E080618093610640916106509162069D
:1024000060916306709164068FE090E00E948C33C7
:1024100040E050E0BA0183E190E00C948C330F93DC
:102420001F93CF93DF93082F000FEB0114E210935B
:102430006604E7E6F4E0DE018D91819384E0E737FE
:10244000F807D1F724E630E041E150E066E674E0B9
:10245000802F0E946631105F6096143B41F7DF9138
:10246000CF911F910F91089580917A04882329F0CC
:102470006CE774E084E70E940F1210927A04809156
:102480007B04882329F06CE075E087E70E940F1237
:1024900010927B040895E6E6F4E06083418324E62D
:1024A00030E042E050E0BF01880F0C9466310F939A
:1024B0001F93CF93DF93082FE62FF0E0E054FA4FFD
:1024C0008081882379F082E1689FE0011124C4565D
:1024D000DA4F10E04991612F802F0E944B121F5F4D
:1024E0001231C1F7DF91CF911F910F910895CF93D2
:1024F000DF93C82F4BE06DEF0E944B1240E06AE083
:102500008C2F0E944B128FE39CE90197F1F700C0DA
:10251000000040E060E08C2F0E944B1240E061E040
:102520008C2F0E944B1240E066E08C2F0E944B12D1
:1025300040E06DEF8C2F0E944B12D0E040E06D2FF9
:102540008C2F0E944B12DF5FD231C1F740E06D2F1C
:102550008C2F0E944B12DF5FD432C1F740E06D2F09
:102560008C2F0E944B12DF5FD43BC1F74BE06DEF25
:102570008C2F0E944B1241E06AE08C2F0E944B127C
:1025800040E06DEF8C2FDF91CF910C944B126F9246
:102590007F928F929F92AF92BF92CF92DF92EF92F3
:1025A000FF920F931F93CF93DF930E94B13084E784
:1025B0000E94771287E70E9477126BEBE62E61E0AC
:1025C000F62ED12CC12C72E1772EE8E08E2E912CC4
:1025D000AA24A394B12C66246394F701418150E0AE
:1025E000CA01849702810452110BC381C452DD0BCE
:1025F000F601EE0FFF1FEE0FFF1FE554FE4F208187
:10260000237030E0FC0197FD379643E0F595E795A0
:102610004A95E1F7729EA001739E500D1124445615
:102620005A4FE40FF52FF11DB4010E94A531A50109
:1026300001C0440F8A95EAF78081842B8083F801DA
:1026400017FD379693E0F595E7959A95E1F7729E19
:10265000C001739E900D112484569A4FE80FF92FF4
:10266000F11DC801B4010E94A531A50101C0440FAC
:102670008A95EAF78081842B8083FE01D7FD379607
:1026800083E0F595E7958A95E1F7729EC001739E08
:10269000900D112484569A4FE80FF92FF11DCE01A9
:1026A000B4010E94A531A50101C0440F8A95EAF743
:1026B0008081842B808320543A4FF9016082FFEFA0
:1026C000CF1ADF0A84E0E80EF11CE0E3CE16D10455
:1026D00009F083CF60E084E70E94571261E087E74A
:1026E000DF91CF911F910F91FF90EF90DF90CF90EE
:1026F000BF90AF909F908F907F906F900C945712E7
:102700001F93CF93DF93EC01FC01E85FFB4F8081C7
:102710006823A1F00E940B32182F0E940B32612F08
:10272000782F8091E0060E947B0B462F282F672F81
:10273000CE01DF91CF911F910C940C09DF91CF91C5
:102740001F910895DF92EF92FF920F931F93CF9303
:10275000DF938C01FC01E85FFB4F8081682381F1EE
:10276000D090DF06D091E006C091DE06EC2EF12C71
:102770000E940B32282FC7018C549F4F68E671E0EE
:102780000E94A5318E199F0997FD0396959587950F
:102790009595879523706C2F289F600D11247D2DB2
:1027A0008D2F0E947B0B462F282F672FC801DF91AA
:1027B000CF911F910F91FF90EF90DF900C940C0937
:1027C000DF91CF911F910F91FF90EF90DF900895CF
:1027D00045E050E06CE170E08DED96E00C946A33DA
:1027E0009091DD06937041F08093DE066093DF06E2
:1027F0004093E0060C94E8130895EDEDF6E0438174
:1028000020E1421B08F440E08181628190E00C9459
:10281000F013EDEDF6E0438120E1420F08F44FEFB5
:102820008181628190E00C94F013EDEDF6E062811D
:1028300020E1621B08F460E08181438190E00C9408
:10284000F013EDEDF6E0628120E1620F08F46FEF26
:102850008181438190E00C94F013EDEDF6E08181ED
:10286000438162818850990B0C94F013EDEDF6E0F2
:10287000818190E04381628108960C94F0139091DD
:10288000DD06937089F0811107C094609093DD0696
:102890001092A3010C94E813893110F09066F6CFE2
:1028A000880F880F982BF2CF08958091DD068695CA
:1028B0008695815009F488E10C943F148091DD06DF
:1028C000869586958F5F893108F081E00C943F14DE
:1028D0000C943F14EDEDF6E0248130E1230F08F471
:1028E0002FEF24830C94E813EDEDF6E0248130E122
:1028F000231B08F420E024830C94E813EDEDF6E0AC
:1029000085E380838091A4019091A501A091A60107
:1029100081839283A3838CE384830C94E8130E94C5
:10292000C71290E080E00E9464338F3E9E4F21F0FA
:102930000E949B110E947E1445E050E06CE170E023
:102940008DED96E00E9446338091DD068C7F11F478
:102950000C947E14089580E290E09093940180930B
:1029600093018091580481110EC00E94B13081E022
:10297000809358042FEF83ED90E3215080409040E6
:10298000E1F700C0000064E670E080E40E94B73028
:102990009093940180939301892B09F04EC064E6D3
:1029A00070E080E00E941331909394018093930132
:1029B000892B09F042C064E670E080E00E94133188
:1029C0009093940180939301892BB9F564E670E0AC
:1029D0008FE30E9413319093940180939301892B8C
:1029E00061F50E948D3164E670E080E40E94B730AA
:1029F0009093940180939301892BF9F464E670E03D
:102A00008CE00E9413319093940180939301892B61
:102A1000A1F464E670E080E00E9413319093940189
:102A200080939301892B49F464E670E08FE30E9460
:102A3000133190939401809393010E948D31809182
:102A400093010895CF93C82F873070F5809193013B
:102A500090919401892B89F564E670E080E40E94EE
:102A6000B7309093940180939301892BD1F464E65D
:102A700070E082E10E94133190939401809393015E
:102A8000892B79F481E090E001C0880FCA95EAF7BC
:102A900064E670E080950E941331909394018093D6
:102AA0009301CF910C948D318A30B9F040F4883085
:102AB00071F0893079F0209A2898CF9108958C3060
:102AC00091F070F08D30B9F73E9A4698F6CF219A82
:102AD0002998F3CF229A2A98F0CF239A2B98EDCFFA
:102AE000529A5A98EACF539A5B98E7CFCF938730A0
:102AF00050F58091930190919401C0E0892B71F47D
:102B000064E670E081E40E94B73090939401809372
:102B10009301892B31F0C0E00E948D318C2FCF9131
:102B2000089584E690E00E94423197FF05C090939B
:102B3000940180939301EFCFC82FC0951092940118
:102B400010929301E9CFCFB18FB1869586958C73A2
:102B5000C3708C2BC82FC095E1CF78941F921FB6FD
:102B60001F9211248F939F93AF93BF93809156062A
:102B700090915706A0915806B09159060196A11D53
:102B8000B11D8093560690935706A0935806B093B4
:102B90005906BF91AF919F918F911F901FBE1F90BB
:102BA00018952FB7F8948091560690915706A091EA
:102BB0005806B09159062FBF08950E94D1159C0167
:102BC00090918E0680918F06982B21F030938B0682
:102BD00020938A069091900680919106982B21F07F
:102BE0003093880620938706E0917506F09176066B
:102BF000309749F082E080938C060480F581E02DC7
:102C00008CE896E00994089510924F0610924E06B3
:102C10000E94510786E0ECE8F6E0DF011D928A95FC
:102C2000E9F7109289061092860610925A060E94C1
:102C3000DD1590E080E00E94330890E080E00C9485
:102C40001D08CF92DF92EF92FF92CF93DF9300D0D7
:102C500000D0CDB7DEB70E9427106B017C018091B8
:102C6000A606882321F08091A706811115C0C09285
:102C7000A206D092A306E092A406F092A5060E94B6
:102C800004160F900F900F900F90DF91CF91FF904F
:102C9000EF90DF90CF900895198282E08A83C70178
:102CA000B6010E94F7068B838EEF8C8364E0CE0121
:102CB00001960E944205DBCF0F931F9341E050E045
:102CC00060E070E004C0440F551F661F771F8A95AF
:102CD000D2F7CB01BA0160957095809590950091DF
:102CE000A2061091A3062091A4063091A5066023A8
:102CF0007123822393231F910F910C94211690919D
:102D00004D068095892380934D06282F277071F4F6
:102D1000282F082E000C330B9217130639F08595D7
:102D2000859585950E945C1610924D0608950F9327
:102D30001F9341E050E060E070E004C0440F551F75
:102D4000661F771F8A95D2F78091A2069091A306FD
:102D5000A091A406B091A5068A019B01082B192B0E
:102D60002A2B3B2BC901B8011F910F910C942116FE
:102D700060935206709353068093540690935506C1
:102D80000C9404161092500680919F01EAE3F4E03F
:102D9000882359F08091730687FF07C08EE1DF0119
:102DA0001D928A95E9F70C94041686E0F8CF1F93DC
:102DB000CF93DF93CDB7DEB7AA970FB6F894DEBFF7
:102DC0000FBECDBF81ED96E02091F100FC01219373
:102DD000CF01F6E0893D9F07B9F78091D20689308F
:102DE00009F444C018F5823009F4B7C0833009F4FF
:102DF0006CC0813031F58091D106813A11F5809116
:102E0000E800877F8093E8008091D5069091D606F0
:102E1000892B41F560E28DEA96E070E00E94E104C2
:102E20008091E8008B778093E8000BC08B3009F429
:102E300069C008F481C0823409F4A0C0853409F463
:102E4000BAC08091E80083FF65C28091D10690915D
:102E5000D2069A3008F05EC2E92FF0E0E85EFB4C43
:102E60000C94B93160E090E080E0D7CF8091D1063A
:102E7000813239F78091D5069091D606029708F7EE
:102E80008091E800877F8093E8008091E80082FFCE
:102E900017C09091F3008091F200029729F480917D
:102EA000F1008B7F813021F48091F1008093AC069A
:102EB0008091E8008B778093E8000E94D003C1CF17
:102EC0008091CF068111E1CFBCCF8091D106813AAC
:102ED00009F0B7CF8091D5069091D606892B09F0DD
:102EE000B0CF8091E800877F8093E8008091E80070
:102EF00080FFFCCF80919F018093F1008091E800DA
:102F00008E77D9CF8091D106813209F09ACF809106
:102F1000D5069091D606892B09F093CF8091E800D1
:102F2000877F8093E8000E94D0038091D30680932E
:102F30009F010E94C21685CF8091D106813209F08F
:102F400080CF8091E800877F8093E8000E94D003C3
:102F50008091D4068093AB0674CF8091D106813ADC
:102F600009F06FCF8091E800877F8093E80080911F
:102F7000E80080FFFCCF8091AB06BECF8091D106E8
:102F8000803C09F05ECF8091D5069091D6060297DD
:102F900039F58091D3069091D406892B09F580915B
:102FA000E800877F8093E8006BE170E086E594E0BD
:102FB0000E94820482CF8091D106803C09F041CFEB
:102FC0008091D5069091D606079751F48091E8003C
:102FD000877F8093E80062EB70E084EA93E0E8CFBB
:102FE0008091EB0080628093EB002BCF803899F0CA
:102FF000823809F08FC18091D5068F70873008F034
:1030000089C18093E9008091EB0085FB882780F9D6
:103010001092E90006C08091CD069091CE069111E4
:1030200082609091E800977F9093E8008093F10090
:103030001092F1008091E8008E7768C1882309F42E
:1030400056C1823009F066C18091D306811159C101
:103050008091D5068F702FEF280F263008F05AC1C7
:103060008093E9002091EB0020FF4BC1933031F4B5
:103070008091EB0080628093EB0043C19091EB0064
:1030800090619093EB0021E030E001C0220F8A951F
:10309000EAF72093EA001092EA008091EB00886042
:1030A000EACF811137C11091D3061F778091E300D9
:1030B0008078812B8093E3008091E800877F809364
:1030C000E8000E94D0038091E80080FFFCCF80914F
:1030D000E30080688093E30082E0111183E0809335
:1030E000CF0618C18058823008F014C18091D306F1
:1030F0009091D4068C3D23E09207A1F583E08A836A
:103100008AE289834FB7F894DE01139620E03EE00F
:1031100051E2E32FF0E050935700E49120FF03C009
:10312000E295EF703F5FEF708E2F90E0EA30C0F0D5
:10313000C7968D939D932F5F243159F74FBF809190
:10314000E800877F8093E8006AE270E0CE01019694
:103150000E94E1048091E8008B778093E800DAC058
:10316000C096E7CF4091D5065091D606292F332738
:103170002330310569F1A0F42130310509F46CC028
:1031800062E570E08EE695E02230310509F0C2C0BC
:103190002091E800277F2093E8000E948204DACF84
:1031A0002132310509F440C02232310509F448C00A
:1031B0002F30310509F0AEC0E2E3F6E0E4916E2F66
:1031C00070E080E396E06115710509F4A3C0E0CFDB
:1031D000992781309105C1F0009771F082309105F7
:1031E000D9F0039709F096C0E2EDF5E0E4916E2F77
:1031F00070E082ED95E0E7CFECE2F6E0E4916E2F2F
:1032000070E08CE296E0DFCFEAEFF5E0E4916E2F1C
:1032100070E08AEF95E0D7CFE8EDF5E0E4916E2F0E
:1032200070E088ED95E0CFCF41155105D1F04130E8
:10323000510509F06FC069E070E089E995E0A8CF19
:103240004115510599F04130510509F063C06CEB0F
:1032500070E082E794E09CCF62E170E080EC95E062
:1032600097CF69E070E080E895E092CF60E470E08D
:103270008EE295E08DCF803809F04CC08091E80057
:10328000877F8093E8008091D0068093F100D2CEB2
:10329000811140C01091D3061230E0F58091E80012
:1032A000877F8093E8001093D0060E94D0031123FB
:1032B00011F084E005C08091E30087FDFACF81E042
:1032C0008093CF0642E061EC81E00E94EF0342E28E
:1032D00061EC82E00E94EF0342E361EC83E00E9434
:1032E000EF0342E360EC84E00E94EF0313C080919F
:1032F000D306813079F481E0933009F080E0809347
:10330000CE061092E9008091E800877F8093E80064
:103310000E94D0038091E80083FF0AC08091E800FA
:10332000877F8093E8008091EB0080628093EB00C0
:10333000AA960FB6F894DEBF0FBECDBFDF91CF9136
:103340001F9108951F920F920FB60F9211242F9381
:103350003F934F935F936F937F938F939F93AF931D
:10336000BF93CF93DF93EF93FF93D091E900DF708A
:103370008091EC00C82FC17080FDC0E81092E90078
:103380008091F000877F8093F00078940E94D71698
:103390001092E9008091F00088608093F000CD2BBE
:1033A000CF70C093E900FF91EF91DF91CF91BF9172
:1033B000AF919F918F917F916F915F914F913F91CD
:1033C0002F910F900FBE0F901F9018951F920F9284
:1033D0000FB60F9211242F933F934F935F936F93E8
:1033E0007F938F939F93AF93BF93EF93FF938091BE
:1033F000E10082FF09C08091E20082FF05C0809158
:10340000E1008B7F8093E1008091DA0080FF24C08F
:103410008091D80080FF20C08091DA008E7F809359
:10342000DA008091D90080FFA1C080E189BD82E1EE
:1034300089BD09B400FEFDCF81E08093CF06809165
:10344000A906811109C00E9454030E9421048091A1
:10345000E20084608093E2008091E10080FF17C069
:103460008091E20080FF13C08091E2008E7F809304
:10347000E2008091E20080618093E2008091D800B8
:1034800080628093D80019BC85E08093CF0680913C
:10349000E10084FF2FC08091E20084FF2BC080E117
:1034A00089BD82E189BD89B5982F917080FFFBCFDE
:1034B0008091D8008F7D8093D8008091E1008F7E2D
:1034C0008093E1008091E2008F7E8093E200809102
:1034D000E20081608093E2008091D006882309F4A5
:1034E0004BC084E08093CF060E94C2160E94490818
:1034F0001092AA068091E10083FF27C08091E2002C
:1035000083FF23C08091E100877F8093E10082E008
:103510008093CF061092D0068091E1008E7F809339
:10352000E1008091E2008E7F8093E2008091E200D2
:1035300080618093E20042E060E080E00E94EF035F
:103540008091F00088608093F000FF91EF91BF912F
:10355000AF919F918F917F916F915F914F913F912B
:103560002F910F900FBE0F901F90189519BC1092BD
:10357000CF061092A90670CF8091E30087FD93E0FB
:103580009093CF06B1CF882379F19CEF980F913AB1
:1035900038F4682F88E394E00E9498060C94510751
:1035A00090E2980F983050F4877091E001C0990F25
:1035B0008A95EAF7892F0E944A07F0CF9BE5980F7A
:1035C000933020F490E080E00C94330898E5980F55
:1035D000973120F490E080E00C941D08803F20F0AB
:1035E0000E945A050C94DD150895CF93DF93EC01EA
:1035F0000E94C31ACE01805E91096CE078E00897C2
:1036000010F067EF77E0CE01DF91CF910C94EA0FD5
:103610008FE39CE90197F1F700C0000080910B0156
:10362000823079F028F4813039F010920B0108953E
:10363000833011F08530C9F78FE090E00E94F51AD1
:10364000F4CF8FE490E0FACF8FE39CE90197F1F794
:1036500000C0000080910B01823079F028F48130A5
:1036600039F010920B010895833011F08530C9F7BD
:103670008EE090E00E94F51AF4CF82E590E0FACF58
:103680008FE39CE90197F1F700C0000080910B01E6
:10369000823079F028F4813039F010920B010895CE
:1036A000833011F08530C9F78DE090E00E94F51A63
:1036B000F4CF81E590E0FACF8FE39CE90197F1F731
:1036C00000C0000080910B01823079F028F4813035
:1036D00039F010920B010895833011F08530C9F74D
:1036E0008BE090E00E94F51AF4CF80E590E0FACFED
:1036F0008FE39CE90197F1F700C0000080910B0176
:10370000823079F028F4813039F010920B0108955D
:10371000833011F08530C9F78DE290E00E94F51AF0
:10372000F4CF8EE290E0FACF8FE39CE90197F1F7B6
:1037300000C0000080910B01823079F028F48130C4
:1037400039F010920B010895833011F08530C9F7DC
:1037500087E290E00E94F51AF4CF87E590E0FACF77
:10376000CF93C82F882309F46EC08CEF8C0F813A59
:10377000B8F580919F01882311F18091730687FF2E
:103780001EC0EC2FE695E695E695F0E0E85CFB4F71
:10379000828190E04C2F477021E030E002C0220F80
:1037A000331F4A95E2F782239323892B89F06C2FEC
:1037B00088E394E00E9498060E94510709C0EAE35A
:1037C000F4E08191C81799F384E0E034F807C9F771
:1037D0006C2F88E394E00E94C206CF910C945107AD
:1037E00080E28C0F883068F4C77021E030E001C0BF
:1037F000220FCA95EAF780915006822B80935006DB
:10380000ECCFEBE5EC0FE33040F4F0E0ED5DFC4F86
:10381000808190E0CF910C943308E8E5EC0FE7311C
:1038200050F4F0E0EE0FFF1FEA5DFC4F80819181C4
:10383000CF910C941D08C03F30F08C2F0E942106C0
:10384000CF910C94DD15CF910895CF93C82F0E948E
:10385000B01BC93349F42FEF87EE93E0215080402D
:103860009040E1F700C000008C2FCF910C94C31A58
:10387000CF93DF93EC01805E910963E178E00897D4
:1038800010F062E078E0CE010E94EA0F8C2FDF9109
:10389000CF910C94B01BCF93DF93EC010E94381CA6
:1038A000CE01DF91CF910C94F51ACF93DF93EC0109
:1038B0008881833061F48FE090E00E944B1C8FE0A0
:1038C00090E00E944B1C8FE090E00E944B1C88818E
:1038D000843030F08FE090E0DF91CF910C944B1C5E
:1038E000DF91CF910895CF93DF93EC0188818330EE
:1038F00061F48EE090E00E944B1C8EE090E00E940C
:103900004B1C8EE090E00E944B1C8881843030F08C
:103910008EE090E0DF91CF910C944B1CDF91CF9122
:103920000895CF93DF93EC018881833061F48DE0BB
:1039300090E00E944B1C8DE090E00E944B1C8DE0BB
:1039400090E00E944B1C8881843030F08DE090E044
:10395000DF91CF910C944B1CDF91CF910895CF93C1
:10396000DF93EC018881833061F48BE090E00E946A
:103970004B1C8BE090E00E944B1C8BE090E00E947F
:103980004B1C8881843030F08BE090E0DF91CF9148
:103990000C944B1CDF91CF910895CF93DF93EC01F2
:1039A0008881833061F48DE290E00E944B1C8DE2AF
:1039B00090E00E944B1C8DE290E00E944B1C88819D
:1039C000843030F08DE290E0DF91CF910C944B1C6D
:1039D000DF91CF910895CF93DF93EC0188818330FD
:1039E00061F487E290E00E944B1C87E290E00E9425
:1039F0004B1C87E290E00E944B1C8881843030F0A1
:103A000087E290E0DF91CF910C944B1CDF91CF9136
:103A100008950E94F60F80930B01823049F018F44C
:103A2000813071F00895833039F0853061F0089568
:103A30008FE490E00C94381C8FE090E00E94381CDA
:103A40008FE090E0F7CF8FE090E00E944B1CF8CF22
:103A50000E94F60F80930B01823049F018F48130F8
:103A600071F00895833039F0853061F0089582E572
:103A700090E00C94381C8EE090E00E94381C8EE0A0
:103A800090E0F7CF8EE090E00E944B1CF8CF0E94B0
:103A9000F60F80930B01823049F018F4813071F0F9
:103AA0000895833039F0853061F0089581E590E024
:103AB0000C94381C8DE090E00E94381C8DE090E062
:103AC000F7CF8DE090E00E944B1CF8CF0E94F60FDC
:103AD00080930B01823049F018F4813071F0089521
:103AE000833039F0853061F0089580E590E00C94E2
:103AF000381C8BE090E00E94381C8BE090E0F7CF00
:103B00008BE090E00E944B1CF8CF0E94F60F809350
:103B10000B01823049F018F4813071F00895833040
:103B200039F0853061F008958EE290E00C94381CF5
:103B30008DE290E00E94381C8DE290E0F7CF8DE29C
:103B400090E00E944B1CF8CF0E94F60F80930B016F
:103B5000823049F018F4813071F00895833039F0E3
:103B6000853061F0089587E590E00C94381C87E279
:103B700090E00E94381C87E290E0F7CF87E290E067
:103B80000E944B1CF8CF0F931F93CF93DF93C42F4A
:103B9000D22FFC0182818823A1F04093D9050E9495
:103BA000D1159093C3058093C205C77081E001C011
:103BB000880FCA95EAF7DF91CF911F910F910C946E
:103BC00013081091D905141335C08091C205909146
:103BD000C3050E948906883C910560F5C0E2CD0FBF
:103BE0001D17B9F080E2810F883040F4177081E032
:103BF00001C0880F1A95EAF70E940C08C83048F4F3
:103C000081E09D2F977001C0880F9A95EAF70E9476
:103C10001308802F0E94251CC83098F4D77081E0CB
:103C200001C0880FDA95EAF7DF91CF911F910F91CC
:103C30000C940C08C77081E001C0880FCA95EAF7A0
:103C4000F3CFDF91CF911F910F9108954F925F9223
:103C50006F927F928F929F92AF92BF92CF92DF929C
:103C6000EF92FF920F931F93CF93DF9300D000D07A
:103C70000F92CDB7DEB77C01DC0113968D919C913C
:103C80001497892B41F01C911196DC90812F8D2186
:103C90008F3F09F09EC70F900F900F900F900F90DD
:103CA000DF91CF911F910F91FF90EF90DF90CF9018
:103CB000BF90AF909F908F907F906F905F904F904C
:103CC00008950E947A0F082F682F89819A810E9497
:103CD000BF07E12FF0E0B6E0DB9EE00DF11D1124FF
:103CE00024E5029FE00DF11D1124EE0FFF1FE455A6
:103CF000FE4F05911491D70112968C91811143C00A
:103D00008091A60681117FC0F70182810932FDE50D
:103D10001F0709F495C00A322DE5120709F47DC189
:103D2000023C3CE5130709F09EC18823E9F090911D
:103D3000A101809161069F3F09F08EC11092A101FF
:103D40008F7E8093610640E060E080E00E940A0977
:103D5000409161065091620660916306709164061D
:103D60008FE090E00E948C3380914D06877009F4BB
:103D700092CFD70112968C91882309F48CCF82E0E0
:103D80000E947F1688CF809192018F3F09F4B8CFAF
:103D90007EE0C72E71E0D72EB12CA12C99249394EC
:103DA00080919201082E000C990B8A159B050CF44A
:103DB000A7CFF60186818823F9F081859285801747
:103DC000910739F48091D6059091D7058017910716
:103DD00099F0D6011F969C921F971C961C930E93E8
:103DE0001B9751968C91811103C0C6010E94550802
:103DF000C60106960E947608BFEFAB1ABB0AE6E141
:103E0000CE0ED11CCDCF8091A706882309F47CCF9C
:103E1000D70112968C911982811110C082E18A8398
:103E2000D7018C918B8311968C918C838EEF8D832F
:103E300065E0CE0101960E94420566CF81E1EFCF99
:103E40008823C9F18091610691E0980F9770887F6F
:103E5000953008F4892B8093610680916106877004
:103E6000AFEF8A9FC0011124959587959595879509
:103E70009927909389008093880090938B0080937A
:103E80008A0090938D0080938C0040916106509140
:103E9000620660916306709164068FE090E00E9474
:103EA0008C336091A2067091A3068091A406909134
:103EB000A5060E942710C80197558F3F910511F064
:103EC00008F047C020919201022E000C330B2817F6
:103ED000390714F480939201D70112962C9112970E
:103EE00036E1389F5001399FB00C1124F501E25F93
:103EF000FE4F6F01208B12969C918681992309F4C5
:103F0000EFC0128701878F5F86830E94D115D6018B
:103F10001E969C938E931D978091510617968C93B5
:103F2000179780914F0690915006892B18968C9385
:103F30001897ED91FC911197309739F054966D9147
:103F40007C91C5018C5E9E4F09951093D705009317
:103F5000D605D70112968C91882309F4CEC098011A
:103F6000215E3C452530310508F0C7C06FE1600F88
:103F700060935D068CE090E00E947A33D701129640
:103F80009C91992309F437C61092D9050230BCE5FB
:103F90001B0708F43EC60631ECE51E0738F0980111
:103FA0002A5F3C452730310508F033C60E94771060
:103FB00090937406809373060F30FCE51F0709F495
:103FC00007C208F088C108303CE5130709F4EAC1CC
:103FD00008F05BC104309CE5190709F4D7C108F06B
:103FE00043C10230BCE51B0709F4CCC180917306C4
:103FF000826003301C4509F45AC160917306109128
:10400000740684E090E00E947A33612F81E290E0B0
:104010000E947A330E94C216A7CE882309F44BCFA0
:1040200090916106892F877F93FF88608093610656
:1040300083FF05C040E060E080E00E940A094091F3
:1040400061065091620660916306709164068FE08C
:1040500090E00E948C332FCF9FEF9093A10180615D
:104060008093610675CE0C32BDE51B0709F160F443
:104070000B32FDE51F0709F01ECF882309F474CE2B
:1040800081E00E94681470CE0D322DE51207E9F030
:104090000E323DE5130709F00ECF882309F464CEF4
:1040A00081E00E9468144FEF6FEF8BE190E00AC04F
:1040B000882309F459CE81E00E9468144FEF6FEF16
:1040C0008CEA90E00E94F0134FCE882309F44CCE86
:1040D00081E00E94681440E86FEF86E590E0F2CF3F
:1040E000882309F436CF8189882309F432CFC501AA
:1040F0008C5E9E4F0E9476082CCF17FF6CC08823E1
:1041000009F43CCF809150068093D8051092500658
:1041100080915D06813009F441C08823D9F1823055
:1041200009F441C0843009F445C0EFE3FCE931975C
:10413000F1F700C000005801E894B7F85CE0C52E24
:10414000D12C95010C2C02C0369527950A94E2F7E4
:104150002F7087E290E029F0822F90E02A3078F5E6
:104160004D960E94251CF4E0CF1AD1082CEFC21600
:104170002FEFD20631F780915D06813031F188232F
:1041800001F18230F1F0843021F18091D8058093E3
:104190005006F4CE82EE0E94B01BC7CF88E193E0B8
:1041A0000E944B1CC2CF82EE0E94B01B87E50E948A
:1041B000251CBBCF86EE0E94251C88E1F8CF069710
:1041C000D0CF82EE0E94C31AE0CF8CE20E94251C61
:1041D000DCCF88E2FBCF033F3CE5130769F1B0F485
:1041E000083D9CE5190711F1093DACE51A07B1F14D
:1041F000073DBCE51B0709F0C1CE06E221EE41EE0A
:1042000067ED7CE5C7010E94C31DAECD053FECE51F
:104210001E07F1F0B8F0063F2CE5120709F0AECE0C
:1042200007E225EE46EE66EF7CE5ECCF07E225EEF1
:1042300045EE68ED7CE5E6CF06E221EE40EE63EF69
:104240007CE5E0CF07E225EE44EE64EF7CE5DACFD3
:1042500006E221EE42EE65EF7CE5D4CF08E221E0F4
:1042600045EE69ED7CE5CECF809173068061063026
:10427000FCE51F07E1F080917306886007301C455C
:10428000B0F080917306806212C00B303CE51307DA
:1042900009F496C078F409309CE5190709F486C042
:1042A000809173068C600A301C4509F0A6CE80937D
:1042B0007306A3CE809173068B7F0D30BCE51B0780
:1042C000B1F3809173068D7F0E301C4580F3809191
:1042D0007306877FECCF0A3FFCE51F0709F45AC03D
:1042E00048F502313CE5130709F47AC060F4003167
:1042F0009CE5190709F470C0809173068F7B01312A
:104300001C45A9F27ACE0431BCE51B0709F476C03E
:1043100008F46CC005311C4509F06FCE809173061E
:1043200082FB992790F921E0922790FB82F990FB7C
:1043300083F9BDCF0D3F2CE5120709F445C070F499
:104340000B3F8CE5180751F1809174068E7F0C3F6E
:104350001C4509F052CE809374064FCE0F3FACE55A
:104360001A0709F447C040F101151D4509F045CE73
:1043700080917406982F909591708E7F892B90FB79
:1043800081F9E9CF80917306816091CF80917306A6
:1043900084608DCF809174068160DDCF809174063A
:1043A0008260D9CF80917306806481CF0E94C2164B
:1043B0008091730680687BCF809174068360CBCF39
:1043C000809173068E7F73CF809174068D7FC3CFEB
:1043D000809173068F7E6BCF809173068F7D67CF40
:1043E0000E94C216809173068F7761CF8091730609
:1043F000837F5DCF809174068C7FADCF0E94C21603
:1044000090917306892F97FB87F9805850CF992395
:1044100009F4A8C0809150068272F801E25CFC4564
:10442000E431F10508F049C0EE5DFB4C0C94B93164
:104430008091DD0691E089278093DD061092A3012B
:104440000E94E81391CC45E554E16EE574E10E94C9
:10445000C0088ACC4EE554E165E574E1F8CF4DE241
:1044600054E166E374E1F3CF46E354E16DE274E1B5
:10447000EECF45E154E161E274E1E9CF41E254E17C
:1044800065E174E1E4CF4DEF53E169E074E1DFCF22
:1044900049E054E16DEF73E1DACF44E754E16AE6B5
:1044A00074E1D5CF4AE654E164E774E1D0CF85E00A
:1044B000E8CD8DE0E6CD82E1E4CD0E3DFCE51F07C1
:1044C00009F446C008302DE5120709F444C001156F
:1044D0001C4509F047C00E94C2168FEF94E3ACE080
:1044E00081509040A040E1F700C00000F89481E0C6
:1044F0008093E00080E28093D8001092C900EFE141
:10450000FEE43197F1F700C000001DBA1092680078
:104510001CBC10BE1FBA10927A0010926E0010924E
:104520006F0010927100109272001092C9001092E8
:10453000BC0014B817B81AB81DB810BA1092BC0055
:1045400015B818B81BB81EB811BA0C94003F0CCCA3
:104550000E949B1109CC8091A80691E08927809345
:10456000A80602CCF70100811181992309F446C005
:10457000C8010E947A0FD82E682FC8010E94BF0779
:10458000B8018D2D0E94D70D082FD92EB82ED70136
:104590001596CC901597C2944FE0C42212961C91A8
:1045A000111110924F0680914D068770C1F01123B2
:1045B000B1F08D2D807F803449F090E2900F9830DB
:1045C00070F0803619F4B6EFBB1649F082E00E9415
:1045D0007F1680914D068770AA24A3948111A12C87
:1045E0009D2C92943FE09322EBE0E91508F43EC045
:1045F000E92DF0E0EA5CFB4C0C94B931C8010E9453
:104600009607D82EBDCFFD2DFF70CF2E8D2D807F2C
:1046100019F0C29420EFC2221123C9F0CC2069F016
:1046200080E2800F883010F0B1100BC080915006EE
:10463000C82AC09250060E945107802F0E94B01BCA
:1046400015C080914F06C82AC0924F06F4CF802F24
:104650000E94C31ACC2051F0005E083010F0B11057
:1046600056C08C2D0E944A070E945107292D2850C0
:10467000330B2430310510F40E944908112379F0DE
:104680008D2D807F803619F436EFB31641F080917E
:10469000DB05823009F095C283E08093DB05AA2018
:1046A000B1F080914D0680FD12C0D70112961C9288
:1046B0008595859585950E949716C7010E94261EAF
:1046C00080914D068595859585950E945C1685E0BF
:1046D000F701DE01119601900D928A95E1F789812B
:1046E0009A810E9496079A81E981F0E0B6E09B9F4B
:1046F000E00DF11D112424E5829FE00DF11D112430
:10470000EE0FFF1FE455FE4F85919491C4CAC094EB
:1047100080914F06C822C0924F06A6CF2D2D2F7034
:10472000822E8D2D807F803219F0829490EF892225
:10473000BB2041F031E0B31631F1112379F1CC20E7
:1047400041F17BCF112391F090915106892F882957
:10475000C11003C00E94130889CFA1E0CA12FACF8A
:10476000981709F483CF8093510680CFC11006C0FB
:104770000E944407882D0E940C0878CFB1E0CB1628
:1047800009F474CFF5CF112331F0E1E0EC1508F412
:104790006DCF882DDFCFC11069CFECCFCC2051F386
:1047A000F9E3BF1209C02FEF37EE83E0215030400C
:1047B0008040E1F700C00000802F0E94C31A56CF4E
:1047C0008D2D86958695837069F0813009F04ECFE6
:1047D000802F9D2D9370111102C090E080E00E9407
:1047E0001D0844CF802F9D2D9370111102C090E0C1
:1047F00080E00E9433083ACF802F112329F00E94D5
:1048000021060E94DD1532CF0E945A05FACF8D2D68
:10481000837009F067C0111129CF202F22952695AA
:104820002770220F220F402F4F7050E070E060E0A1
:10483000022E04C0440F551F661F771F0A94D2F73B
:1048400080E090E0DC0104FF0FC08FE090E0A0E08A
:10485000B0E004C0880F991FAA1FBB1F2A95D2F78A
:1048600080959095A095B0952D2D26952695237031
:10487000223029F1D8F440905206509053066090AF
:10488000540670905506213069F0842B952BA62B89
:10489000B72BBC01CD0164217521862197210E948F
:1048A000B816E4CE44295529662977292A013B0107
:1048B000482A592A6A2A7B2AC301B201F0CF842BE5
:1048C000952BA62BB72B4090520650905306609024
:1048D000540670905506BC01CD01642575258625CA
:1048E0009725DDCF8695112311F08D2D81708823BA
:1048F00009F4BCCE202F229526952770220F220F77
:10490000402F4F7050E070E060E0022E04C0440F72
:10491000551F661F771F0A94D2F780E090E0DC01F4
:1049200004FF0FC08FE090E0A0E0B0E004C0880F6B
:10493000991FAA1FBB1F2A95D2F780959095A09525
:10494000B0952D2D269526952370223029F1D8F487
:104950004090A2065090A3066090A4067090A50611
:10496000213069F0842B952BA62BB72BBC01CD01F0
:1049700064217521862197210E94211677CE442932
:104980005529662977292A013B01482A592A6A2A8A
:104990007B2AC301B201F0CF842B952BA62BB72B1A
:1049A0004090A2065090A3066090A4067090A506C1
:1049B000BC01CD016425752586259725DDCF2D2DDC
:1049C0002F70C22E112329F0822F0E949716802F5C
:1049D000C1CE802F0E940C088C2D0E945C1646CE02
:1049E000802F32EFB31609F450C03B1578F090EFEA
:1049F000B91621F1A1EFBA1609F43FC0112309F449
:104A000068C0C1101ACE8D2D8F713CC0B3EFBB169C
:104A100009F440C0E4EFBE12F1CF112309F44EC0F7
:104A20000D2D0F71802F0E94971628E0029FC00164
:104A30001124836080934D06802F24C01123C1F080
:104A4000C11014CE2D2D2F7161E070E080E090E058
:104A500004C0660F771F881F991F2A95D2F74090D0
:104A6000A2065090A3066090A4067090A506A2CF5F
:104A7000F1E0FC1508F4FACDE5CF8D2D8F711123EF
:104A800009F4ABCF0E949716F1CD8D2D8F711123B4
:104A9000C9F3A3CF60E070E0CB01112309F46CCF20
:104AA0002D2D2F7161E070E080E090E004C0660F72
:104AB000771F881F991F2A95D2F75ECF81E00E9449
:104AC0007F1631E03C1508F0D1CD82E00E947F16C0
:104AD000CDCDCC2059F0893309F06ECE8FEF97EE13
:104AE000A3E081509040A040E1F764CE8D2D8F71FE
:104AF00074CFE0E1E00FE73008F03EC0F0E0EE5B9D
:104B0000FB4C0C94B931112309F4B0CD8091DD0533
:104B100091E089278093DD05A9CD1093DD05A6CD11
:104B200081E08127F7CF1111A1CD81E0F3CF1111E1
:104B30009DCD1092DD059ACD112321F082E0809366
:104B4000DB05F3CF8091DB05823021F481E0809397
:104B5000DB058CCD833009F089CD1092DB05E9CFE0
:104B6000112339F08091DC05882381F21092DC0555
:104B70007DCDCC2059F27ACD8091DC05CC20A9F0F6
:104B8000882341F08091DD0591E089278093DD0540
:104B90001092DC05802F111151CD0E94C31A86E0BE
:104BA000F70111928A95E9F761CD882309F45ECD6A
:104BB00011115CCD8091DD0591E089278093DD05A1
:104BC000D5CF813009F06BCD1092DB051092DD0559
:104BD00066CD85E0F701DE01119601900D928A9570
:104BE000E1F7F701228189819A8121116AC80E9427
:104BF0009607082F6EC806311C4509F0B3CC80918A
:104C0000DA0569E2811165E388E394E00E94980681
:104C100014C006312CE5120709F0F9CB809150063B
:104C20008A7A91E009F490E09093DA0569E28111C3
:104C300065E388E394E00E94C2060E94510794C88D
:104C40001F93CF93DF938091E305807FA9F4809138
:104C5000E005882389F080911506D091E4056091E4
:104C6000DE057091DF05A091E105B091E205C62F48
:104C7000C72316E0D81304C0DF91CF911F91089588
:104C800090E0109711F0CF3F19F401968770F2CFA2
:104C9000189F9001199F300D1124F901EB51FA4F23
:104CA00041814713F2CF40814613EFCF428141113A
:104CB000ECCF438154814A1B5B0B483C510528F7DC
:104CC0008091E3058F7080618093E305F901E651DF
:104CD000FA4F80818F70806180838EED95E00E9415
:104CE000261EDF91CF911F910C94ED07AF92BF92DA
:104CF000CF92DF92EF92FF920F931F93CF93DF93A8
:104D0000CDB7DEB761970FB6F894DEBF0FBECDBF4B
:104D10008C0185E0F801DE011D9601900D928A95C7
:104D2000E1F7F80180819181E2802EEDA22E25E04D
:104D3000B22E6091E1057091E2056115710509F4EB
:104D40003EC13091DE054091DF05232F24232F3F04
:104D500009F435C1C380D480F090E005F601E61B6C
:104D6000F70BFF2009F4FBC02091E305522F507F81
:104D7000E83CF10508F0BBC0511178C0FE2C491386
:104D800021C038131FC0E1101DC02F702061209377
:104D9000E305C5010E94261E8091E305F801858385
:104DA0008F2D61960FB6F894DEBF0FBECDBFDF9199
:104DB000CF911F910F91FF90EF90DF90CF90BF9018
:104DC000AF900895CD2829F0282F29232F3F09F0EF
:104DD00022C120E0F22FF170DF2E20FF3DC0209194
:104DE00015064091E40556E0241315C08D879E8773
:104DF0008D859E850E94BC0F292F22952F70223011
:104E0000F8F0243020F59F70F9F0F8019581907F3B
:104E1000D9F4D12C1FC030E0529FF001539FF00D08
:104E20001124EB51FA4F6181961306C060818613FD
:104E300003C06281E61210C02F5F3F4F2770D4CFAE
:104E40009F7011F0882329F3805E883010F3C80129
:104E50000E94261EFD2CA4CFEE2009F4A1CF809144
:104E6000E30581608093E305F12C9ACF491312C0CA
:104E7000381310C0E1100EC0F8012583C8010E944C
:104E8000261E86E0F801AEEDB5E001900D928A9500
:104E9000E1F786CF8D879E878D859E850E94C60F00
:104EA000882309F1EE20F9F08091E305803270F05B
:104EB0002091DE053091DF0538872F831986DB8648
:104EC000CA868C87CE0107960E94261E86E0F801CE
:104ED000AEEDB5E001900D928A95E1F70E94202693
:104EE000FF24F3945DCFC8010E94261EF9CF511113
:104EF0000AC08EED95E00E94261E86E0F501119213
:104F00008A95E9F7B1CF49130FC038130DC0E110EE
:104F10000BC0F8012583C8010E94261E86E0F5011A
:104F200011928A95E9F73CCF8D879E878D859E8566
:104F30000E94C60F8823B9F2EE20A9F28091E30502
:104F4000803220F22091DE053091DF053A832983FB
:104F50001B82DD82CC828E83CE010196B5CFE83CE8
:104F6000F105E0F6FE2CEE2009F4BDCF491316C082
:104F7000381314C08091E30580FD83CF982F907F74
:104F800009F47FCFF8018583903F09F477CF982FFC
:104F9000907F905F8F70892B858370CF8D879E87E0
:104FA0008D859E850E94C60F811190CF8091E3056B
:104FB00081608093E305C8010E94261EF1CEEE2099
:104FC00009F491CF8D879E878D859E850E94C60F9F
:104FD000F82E882309F487CF86E0F801AEEDB5E01E
:104FE00001900D928A95E1F78091DE059091DF05A1
:104FF0000E94BC0F92959F70963051F4863F41F00D
:105000008091DD0591E089278093DD059093DC0593
:105010000E942026C5CE21E02E25DCCE1F93CF9303
:10502000DF93CDB7DEB767970FB6F894DEBF0FBE3C
:10503000CDBF6D8B7E8B8F8B8E899F89892BE1F005
:10504000852F84238F3F09F098C05FEF4FEF14C086
:105050003091DD05332309F44EC0E42FF0E036E053
:10506000539FE00DF11D1124EE0FFF1FE558FD4F7A
:1050700040815181822B8C931A8A198A4B8B5C8BCD
:1050800085E0FE017396DE011D9601900D928A95D2
:10509000E1F786E0FE013D96DE01179601900D9244
:1050A0008A95E1F7CE0107960E947626811112C0FB
:1050B00086E0FE013796DE01119601900D928A95E9
:1050C000E1F78A859B85892B29F08F819885892333
:1050D0008F3FC9F516E0809115069091E40589137C
:1050E00020C067960FB6F894DEBF0FBECDBFDF912C
:1050F000CF911F91089580958223BDCF96E0929F16
:10510000D001939FB00D1124AB51BA4FFE013196DF
:1051100001900D929A95E1F78093E4050E94ED07C6
:10512000D9CF819FC00111248B519A4F0E947626BE
:105130008823B9F28091150690E00196877099272F
:1051400080931506C8CF2091E40530E0C90101968F
:1051500087709927409115064817190679F60E941D
:10516000C2161092E4051092150686E0EEEDF5E009
:10517000DF011D928A95E9F7ADCF81E090E0042E22
:1051800001C0880F0A94EAF7A52FB0E0A853BA4FE0
:105190002C913D8931115CCF322F38235BCF8F9218
:1051A0009F92AF92BF92CF92DF92EF92FF920F93B6
:1051B0001F93CF93DF938091930190919401892B5A
:1051C000A1F0809159048F5F8093590481110DC023
:1051D0000E94AB1490E09093940180939301892BEB
:1051E00021F40E9421110E948F14F5E68F2EF6E023
:1051F0009F2E740100E010E0E7E0CE2EC10E812F5B
:105200000E9422158C2D0E942215812F0E94761556
:10521000E70199917E01D12C891729F0FE01319780
:105220008083DD24D3948C2D0E947615F70196811E
:10523000891709F47CC0868381E08D29082B0E94A0
:105240005B101F5F1730C1F60E94D11560915B049F
:1052500070915C0490935C0480935B0420915A04E9
:1052600030E0261B370B820F931F6BEF70E00E941C
:105270009131E82E392F182F80935A04F0905E0454
:10528000FF2009F456C310925E04E0915B06F09192
:105290005C06AF01425F5F4F20E07BEFB72E6BEF04
:1052A00070E0A191AB3FA1F0CA2ED12C8E2D932F8F
:1052B0001A1708F43EC08C199D09092E000CAA0B80
:1052C000BB0B4E97A105B105D0F1DF011197BC9240
:1052D0004E175F0731F720935E04011102C02111C0
:1052E0002AC310925D04A0915B06B0915C06909178
:1052F0005E04E8E7F6E046E856E080E03191E4013C
:1053000029914E01321751F03C913B3FD1F41C934F
:10531000BF0161507109EB01288391E011964E178E
:105320005F0761F790935E0480935D0408C380E09B
:1053300084CFDB01AC19BD098A0F9B1FBECF2F2D77
:10534000C7CF81E0EBCFF29EF001F39EF00D112468
:10535000E25FFE4FC288D388C114D10419F468EC0F
:10536000C62ED12CF29EE001F39ED00D1124C25F17
:10537000DE4F8E818823B9F08D859E850E94890637
:10538000C816D90680F41F9D6001112489898111F6
:1053900005C0C601825F9E4F0E945508C6018C5E03
:1053A0009E4F0E9476081F5F212F30E0809192016E
:1053B000082E000C990B821793072CF6C8C2109286
:1053C000A0014093D9065093DA066093DB067093F0
:1053D000DC0681E08093A301E8C280910D01C1E069
:1053E00018130BC02091DD06237080910C0190E012
:1053F000C1E02817190609F4C0E0C170C093A201EA
:10540000193140F4E12FF0E0E75BFB4C0C94B9312B
:10541000C11102C0C0E027C040E060E080E00E940F
:105420000A09F8CF8091A001C82FCC0FCC0FC80F6C
:1054300045E0F42EFC0EEF2CD0E3DF1510F430E342
:10544000E32E6091DE067091DF068091E0060E94F7
:105450007B0BD62EC72EB82ED0E0CE15B0F0C1E013
:10546000FFE2FF15B8F28091A0018F5F8093A00149
:10547000C1119BC282E08093A3018091A20181119E
:1054800094C2111192C283E0A5CFFE01E85FFB4FE9
:1054900080819091A101892331F02B2D4D2D6C2D10
:1054A000CE010E940C092196D8CF8091A001C82F6F
:1054B000CC0FCC0FC80F25E0F22EFC0EEF2C20E312
:1054C0002F1510F490E3E92EC090DF06D090E0068F
:1054D000D091DE066D2F7C2D8D2D0E947B0BB62E7C
:1054E000A72E982E6091E1066D0F7C2D8D2D0E94C8
:1054F0007B0BD62EC72E882ED0E0CE1530F0C1E023
:105500008FE28F1508F0AFCF85CFFE01E85FFB4F2C
:1055100090818091A101892359F0282D4D2D6C2D6A
:1055200090FD03C0292D4B2D6A2DCE010E940C0940
:105530002196E3CF8091A001C82FCC0FCC0FC80FCC
:1055400085E0F82EFC0EDF2C90E39F1510F4D0E3DD
:10555000DD2EC090DF06B090E0062091E106B0E4B9
:10556000EB2E3E2D329F312D1124E32ED0E0CD15B0
:1055700030F0C1E09FE29F1508F075CF4BCFFE01E0
:10558000E85FFB4F80819091A1018923B9F0FE0172
:10559000EE0FFF1FE755FC4F808182958F70609161
:1055A000DE068E9D600D11247C2D8B2D0E947B0BC1
:1055B000462F282F672FCE010E940C092196D7CFA6
:1055C0008091A001C82FCC0FCC0FC80FE5E0FE2EB4
:1055D000FC0EDF2CD0E3DF1510F470E3D72EC09063
:1055E000DF06B090E0062091E10660E4E62E3E2D55
:1055F000329F312D1124E32ED0E0CD1508F0B9CF24
:10560000FE01E85FFB4F80819091A1018923D9F0D1
:10561000FE01EE0FFF1FE855FC4F6081E69EB001D2
:10562000112455E0759567955A95E1F78091DE064E
:10563000680F7C2D8B2D0E947B0B462F282F672F08
:10564000CE010E940C092196D8CF8091A001C82FCD
:10565000CC0FCC0FC80F35E0F32EFC0EEF2CD0E3AF
:10566000DF1510F420E3E22ED090DE06D091DF06A5
:10567000C090E0066091E10666956695669580911A
:10568000D9069091DA060E94710B0E94FA0A80589E
:1056900087FD8195880F282F3C2D239F212D1124D4
:1056A000822F6D2D7D2F0E947B0BD62EC72EB82EFC
:1056B000D0E0CE1508F05DCFFE01E85FFB4F8081A2
:1056C0009091A101892331F02B2D4D2D6C2DCE0110
:1056D0000E940C092196EDCF85E09AE00E944A0DC8
:1056E000C82FC1CE8BED99E0F9CF8CED9AE00E94E6
:1056F000EE0CF6CF8DEB9AE0FACF82EA9AE00E94A8
:10570000710CEECF86E89AE0FACF89ED99E0E6CF0A
:1057100080ED99E0E3CF87EC99E0E0CF8EEA99E065
:10572000DDCF80EA99E0EBCF89E49BE0E0CF85E72D
:105730009AE0DDCF81E69AE0E2CF83E799E00E942C
:105740000F0CCECF85E499E0FACF8EE099E0F7CF49
:10575000C1111EC06091E10620E1620F08F46FEFF5
:105760008091D9069091DA060E94710B6AE070E090
:105770000E949131892B09F04DCE0E940B3260E3DB
:1057800070E00E94A5316091A1010E94A2136BCE2E
:105790008091A001C82FCC0FCC0FC80F95E0D92E57
:1057A000DC0E8D2DD0E3DD1508F480E3D0E0E82E8B
:1057B000F12CCE15DF0534F0C1E0EFE2ED1508F075
:1057C00052CE28CE6091A101CE010E94A213219653
:1057D000F0CFC1111EC06091E10620E1620F08F414
:1057E0006FEF8091D9069091DA060E94710B65E007
:1057F00070E00E949131892B09F00CCE0E940B328F
:1058000060E370E00E94A5316091A1010E948013C5
:105810002ACE8091A001C82FCC0FCC0FC80F85E0F5
:10582000D82EDC0E8D2DF0E3FD1508F480E3D0E0DA
:10583000E82EF12CCE15DF0534F0C1E02FE22D1556
:1058400008F011CEE7CD6091A101CE010E94801336
:105850002196F0CF10930D018091DD068370809327
:105860000C010E9434120FCE4091D9065091DA06F5
:105870006091DB067091DC062FB7F8948091560694
:1058800090915706A0915806B09159062FBF841BDE
:10589000950BA60BB70B4A97A105B10508F485C077
:1058A0001092A30182C09170892B09F490C080915D
:1058B0006404909165048130984780F01092A806A6
:1058C0006091A2067091A3068091A4069091A5060E
:1058D0000E94271010926504109264048091640461
:1058E0009091650401969093650480936404802FE1
:1058F000DF91CF911F910F91FF90EF90DF90CF90AC
:10590000BF90AF909F908F9008950E94211066C025
:10591000892B69F310926504109264046091A206C9
:105920007091A3068091A4069091A5060E9427106D
:10593000DECF0111D6CC80915D048111D2CC809153
:10594000920110E056E1F52E8F3F09F02DCD8FB773
:10595000F894409156065091570660915806709100
:1059600059068FBF40935F045093600460936104B5
:10597000709362048091AA0610E0811108C08091A2
:10598000DD06182F137019F0182F169516958091B3
:10599000A301813009F421CD882309F410CD823090
:1059A00009F458CF833009F45FCF8091640490915B
:1059B00065042091A806222309F4AACF009709F0D4
:1059C00072CF0E9418100E9415100E941210C091F0
:1059D0006304CC2309F499CF0E94151081E0C827F5
:1059E000C093630464CFCDB7DEB7C955D1090FB6F4
:1059F000F894DEBF0FBECDBF84B7877F84BF0FB6DC
:105A0000F894A8958091600088618093600010925E
:105A100060000FBE80E890E00FB6F89480936100BC
:105A2000909361000FBE85B7806885BF85B7806899
:105A300085BF0E9454030E9421048091E20084608B
:105A40008093E20078948091CF068823A1F0109192
:105A5000E9001F709091EC00892F817090FD80E823
:105A6000182B1092E9008091E80083FD0E94D71660
:105A70001F701093E90082E084BD93E095BD9AEF1A
:105A800097BD80936E000E94AB1490E090939401B8
:105A9000809393010E945B100E946A10E5E6F6E095
:105AA00083E796E0A8E7B6E011921D928E179F0754
:105AB000D9F78EE090E00E941B3280935B069093B2
:105AC0005C06FC010E962BEF21938E179F07E1F7E2
:105AD00090E080E00E9464338F3E9E4F11F00E9460
