:100000000C943D030C945A030C945A030C945A0319
:100010000C945A030C945A030C945A030C945A03EC
:100020000C945A030C945A030C94EE150C94A21AD7
:100030000C94D2300C945A030C945A030C945A0327
:100040000C945A030C945A030C945A030C945A03BC
:100050000C945A030C94C5160C945A030C945A032E
:100060000C945A030C945A030C945A030C945A039C
:100070000C945A030C945A030C945A030C945A038C
:100080000C945A030C945A030C945A030C945A037C
:100090000C945A030C945A030C945A030C945A036C
:1000A0000C945A030C945A030C945A0305010980CA
:1000B000A101850319012AB700150126B700950192
:1000C00075108100C0050C0901A101850419012AE0
:1000D000A002150126A002950175108100C005013E
:1000E0000906A1018505050719E029E71500250185
:1000F0009508750181020507190029EF15002501F2
:1001000095F075018102050819012905950575010C
:100110009102950175039101C005010902A1010930
:1001200001A100050919012905150025019505758D
:10013000018102950175038101050109300931151D
:1001400081257F95027508810609381581257F95DF
:100150000175088106050C0A38021581257F950175
:1001600075088106C0C005010906A101050719E04F
:1001700029E715002501950875018102950175088B
:1001800081010507190029FF150026FF0095067556
:100190000881000508190129059505750191029549
:1001A0000175039101C0000101010101010101017B
:1001B0000202020202020202020303030303030318
:1001C00003040404040404040505050505060606E5
:1001D0000606070707070708080808090909090AA2
:1001E0000A0A0B0B0B0C0C0C0D0D0D0E0E0E0F0F47
:1001F0000F101011111112121313141415151616D5
:100200001717181819191A1A1B1B1C1D1D1E1E1F43
:100210002020212222232424252626272829292A92
:100220002B2C2D2D2E2F30313232333435363738BA
:10023000393A3B3C3D3E3F404142434445464748B6
:10024000494A4C4D4E4F50515354555658595A5B8C
:100250005D5E5F616264656668696B6C6D6F70722C
:10026000737577787A7B7D7E8082838587888A8C98
:100270008E8F91939596989A9C9EA0A2A3A5A7A9CC
:10028000ABADAFB1B3B5B7BABCBEC0C2C4C6C9CBC3
:10029000CDCFD1D4D6D8DBDDDFE2E4E7E9EBEEF079
:1002A000F3F5F8FAFDFF29002B002A00E100E00039
:1002B00000001E00140004001D61E2004D001F003C
:1002C0001A0016001B00E3004C0020000800070085
:1002D000060035002C002100150009001900E3007C
:1002E0004A00220017000A000500000050002F02FB
:1002F000260200002C0800004F00300227020000F8
:1003000001530000520023001C000257110000009E
:100310005100240018000357100052004B00250024
:100320000C00045736005100280026001200055723
:1003300037002F002B000057130033423871300074
:100340004E00015731003400E50001530000290040
:10035000010001000100010000003A001E0220021D
:1003600022022E002F5D3B001F022102230201000A
:10037000CA5C3C002F0226022F000100CB5C3D002E
:1003800030022702300001002E5D3E0031023500B0
:1003900035020000C45C0100010000000100000003
:1003A0002D5D01000100000001000000C35C3F0062
:1003B00052005100240200002C5D40002400210066
:1003C0001E00010001004100250022001F0037002F
:1003D000C65C42002600230020002700C75C4300C3
:1003E00025022E0231002E000100440045000100CC
:1003F00001000100000001000100010001000100F6
:1004000000000100010001000100095D0100010080
:100410000100F2000100010001000100F000F10004
:100420000100F400010001000100F3000100F500EB
:1004300001000100010001000100000001000100B5
:1004400001000000010000000100010001000000A7
:100450000100000001000100010001000100000096
:1004600001000100010001000100A90001000100DC
:1004700001000100AC00AA00B6000100010001006B
:10048000AB00A80001000100010001000100010013
:100490000100005C0100AE000100010000000A0044
:1004A000000000000306B200080001000000A800E0
:1004B000080002000300A0001400030057494E5535
:1004C000534200000000000000000000840004000F
:1004D00007002A004400650076006900630065009B
:1004E00049006E00740065007200660061006300E0
:1004F00065004700550049004400730000005000AB
:100500007B003900440042003700460031004600BD
:1005100044002D0037004500370041002D00340015
:100520003000300038002D00390033003600420022
:100530002D003600420041003600430031003900F2
:10054000410033003000380063007D0000000000EF
:100550001B0301636F6E6669677572652E6572674E
:100560006F646F782D657A2E636F6D0009026B00E2
:10057000040100A0FA09040000010301010009219F
:10058000110100012240000705810308000A090447
:1005900001000103010200092111010001224D00A7
:1005A0000705820308000A09040200010300000095
:1005B000092111010001226D000705830320000AB3
:1005C0000904030002FF0000000705840340000542
:1005D00007050503400005120110020000000897FE
:1005E00032764901000102000120034500720067D4
:1005F000006F0044006F007800200045005A002082
:100600000047006C006F007700000030035A005371
:10061000004100200054006500630068006E006F18
:10062000006C006F006700790020004C00610062E0
:10063000007300200049006E0063000000040309FD
:1006400004050F3900021C100500DF60DDD8894564
:10065000C74C9CD2659D9E648A9F00000306B20031
:1006600045001810050038B60834A909A0478BFDCD
:10067000A0768815B6650001420011241FBECFEF99
:10068000DAE0DEBFCDBF26E0A8E4B4E001C01D92F1
:10069000A63FB207E1F714E0A0E0B1E0E4E5F9E637
:1006A00002C005900D92A834B107D9F70E942B2DF6
:1006B0000C9449340C940000E8EDF0E080818E7FCA
:1006C00080831092E2001092DA001092E100A0EE16
:1006D000B0E08C9181608C9380818F77808319BC8E
:1006E000A7EDB0E08C918E7F8C9380818F7E80838C
:1006F0001092B70608952091E4003091E50095E648
:10070000A9012091EC00822F817020FF06C080910A
:10071000E80080FF06C080E008952091E80022FDF7
:100720001AC08091DC06882389F0853089F0809199
:10073000EB0085FD0FC02091E4003091E5004217E9
:100740005307F9F29150E1F684E0089582E00895AC
:1007500083E0089581E00895EF92FF920F931F9335
:10076000CF937C018B010E947B03C82F882371F0FB
:100770008C2FCF911F910F91FF90EF900895F7016B
:1007800081917F018093F10001501109011511053C
:1007900079F38091E80085FDF2CF8091E8008E77B3
:1007A0008093E8000E947B03882381F3C82FE0CF69
:1007B0008091DE0687FF13C08091E80082FF06C0AB
:1007C0008091E8008B778093E80004C08091DC067C
:1007D0008111F2CF08958091DC068823D9F38091AE
:1007E000E80080FFF8CF8091E8008E77ECCF982F5B
:1007F0009093E900242F762F50E0891731F0709103
:10080000EC002091ED005091F00021FD07C09F5FAA
:10081000973071F78093E90081E008953091EB0003
:100820003E7F3093EB003091ED003D7F3093ED0043
:100830003091EB0031603093EB007093EC0020932B
:10084000ED005093F0002091EE0027FDE0CF80E016
:100850000895CF92DF92EF92FF920F931F93CF9361
:10086000DF93C8EDD0E088818F7E8883E7EDF0E0EC
:1008700080818160808384E082BF81E08093B706BD
:1008800088818E7F888302EE10E0F801108210923A
:10089000DA0081EEC82ED12CF601108288818F7784
:1008A000888388818068888388818F7D888319BC4C
:1008B0001092DC061092DD061092DB061092DA062A
:1008C00090EEE92EF12CF70180818B7F8083888167
:1008D0008160888342E060E080E00E94F703F601D7
:1008E00080818E7F8083F801808181608083808118
:1008F00088608083F70180818E7F8083888180611A
:100900008883DF91CF911F910F91FF90EF90DF903F
:10091000CF900895FC018091E4069091E50686173A
:100920009707A0F06115710529F48091E8008E7792
:100930008093E80090E06115710551F4911108C0B1
:100940008091E80082FF35C080E00895BC01F2CFBD
:100950008091DC068823C9F18530C9F18091E800D7
:1009600083FD31C08091E80082FDEACF8091E800EC
:1009700080FFE1CF8091F3002091F200382F6115C4
:10098000710519F02830310558F091E02830310513
:1009900009F090E08091E8008E778093E800CBCF5B
:1009A00084918093F1003196615071092F5F3F4F20
:1009B000E6CF8091DC06882341F0853041F08091BC
:1009C000E80083FFBDCF81E0089582E0089583E0D1
:1009D0000895FC018091E4069091E506861797073B
:1009E000A0F06115710529F49091E8009E7790932D
:1009F000E80090E06115710551F4911108C08091F3
:100A0000E80082FF34C080E00895BC01F2CF8091FD
:100A1000DC068823C1F18530C1F18091E80083FDB7
:100A200030C08091E80082FDEACF8091E80080FF2D
:100A3000E1CF8091F3002091F200382F611571050C
:100A400019F02830310558F091E02830310509F0CF
:100A500090E02091E8002E772093E800CBCF8191A1
:100A60008093F100615071092F5F3F4FE7CF809174
:100A7000DC06882341F0853041F08091E80083FF57
:100A8000BECF81E0089582E0089583E008958091CB
:100A9000B90608952091DC06243091F42093E900F2
:100AA00070E050E040E00E94AC03882321F01092F7
:100AB000B5061092B6068091E8008E778093E80024
:100AC000089590919C06803F59F480919D0687FF80
:100AD0000DC010929D0691110BC01092980608C08F
:100AE000813F81F480919D0618169CF3992381F033
:100AF00080919E0690919F06892B09F064C0109208
:100B000095060895823F49F497FFF0CF10929C0616
:100B100080919D068111ECCFE0CF833F19F4191627
:100B2000ACF3E4CF20919E06893F29F41216F4F627
:100B300010929E06DBCF8A3F19F427FFD7CFF8CF5C
:100B400020919F068B3F29F427FFD0CF10929F065C
:100B5000CDCF8C3F19F41216CCF3C8CF843F31F4BB
:100B600080919B068E7F80939B06C0CF853F21F4AA
:100B700080919B068D7FF7CF863F21F480919B0665
:100B80008B7FF1CF873F21F480919B06877FEBCF4E
:100B9000883F21F480919B068F7EE5CF8D3F31F415
:100BA000809168068E7F80936806A0CF8E3F21F4E7
:100BB000809168068D7FF7CF8F3F09F097CF8091A6
:100BC00068068B7FF0CF08958091680680FD1AC07B
:100BD00081FD14C082FD14C080919506882391F098
:100BE0008C3370F427E0829FC00111246CE370E025
:100BF0000E94ED31862F672B29F0089583E0089538
:100C000087E0089581E008958091680680FD16C010
:100C100081FD16C082FD18C080919806882391F04E
:100C20008C3390F423E2829FC00111246CE370E0C6
:100C30000E94ED31862F672B49F0089588E00895D2
:100C400081E1089585E0089583E2089581E00895A3
:100C5000803F31F40E940406819580939D0608959B
:100C6000813F19F40E940406F8CF823F31F40E94BC
:100C70000406819580939C060895833F19F40E9491
:100C80000406F8CF893F29F40E94E40580939E066C
:100C900008958A3F21F40E94E4058195F7CF8B3FA8
:100CA00031F40E94E405819580939F0608958C3F5E
:100CB00019F40E94E405F8CF843F31F480919B063B
:100CC000816080939B060895853F21F480919B0667
:100CD0008260F7CF863F21F480919B068460F1CF3C
:100CE000873F21F480919B068860EBCF883F21F4F9
:100CF00080919B068061E5CF8D3F31F4809168063D
:100D000081608093680608958E3F21F48091680683
:100D10008260F7CF8F3FB9F7809168068460F1CF8A
:100D20009C014FB7F8948091640690916506A0915C
:100D30006606B09167064FBF821B930B0895209102
:100D40009F012223C9F02091810627FF15C0E62FBD
:100D5000E695E695E695EE31D8F4E80FF92FF11D0A
:100D6000677021E030E001C0220F6A95EAF7209514
:100D70008281282322830895FC01329608962191CE
:100D8000621303C0DF0111971C92E817F907B9F746
:100D9000089520919F012223C1F02091810627FF11
:100DA00014C0E62FE695E695E695EE31F8F4E80FE7
:100DB000F92FF11D677021E030E001C0220F6A9524
:100DC000EAF78281822B82830895FC0132962FEF0D
:100DD00030E04191641751F02F3F19F4411101C0E7
:100DE000232F3F5F3630A9F72F3F09F40895820F74
:100DF000911D27FD9A95FC0162830895CF92DF92A1
:100E0000EF92FF926C01EE24FF2420E0C114D10484
:100E1000E104F10419F0C701B60120E1C72ED82E74
:100E2000E92EFF24C114D104E104F10419F0285F74
:100E3000C701B6016B017C0154E0F694E794D794A6
:100E4000C7945A95D1F7C114D104E104F10419F003
:100E50002C5FC701B6016B017C0142E0F694E79478
:100E6000D794C7944A95D1F7C114D104E104F10491
:100E700019F02E5FC701B60196958795779567950E
:100E8000672B682B692B09F02F5F822FFF90EF9063
:100E9000DF90CF90089580915F06811110925F06D8
:100EA0000895809590915E06982390935E0608952C
:100EB00080915E0690915D06892B90915C06892B4E
:100EC0008093480490915F069923A1F0892B809329
:100ED000480480919F01882341F18091810687FF1A
:100EE00024C08EE1EAE4F4E090E0815000F5911135
:100EF0000E944B07E0918306F09184063097E1F061
:100F000080919F01882359F08091810687FF07C057
:100F1000809148048093490485E0809348040280CE
:100F2000F381E02D88E494E0099486E0DBCF219101
:100F30002223D9F29F5FD9CF0895E92FEE0FE90F51
:100F4000EE0F8E0F982F977086958695869525E0E3
:100F5000829FF0011124EC5DF94F50E040E080E009
:100F6000219130E0092E02C0369527950A94E2F7C8
:100F700021703327042E01C0220F0A94EAF7822B36
:100F80004F5F5F4F4530510559F70895E92FEE0F38
:100F9000E90FEE0F8E0F982F977041E001C0440FBC
:100FA0009A95EAF786958695869595E0899FF00152
:100FB0001124EC5DF94F30E020E070E05191DF0149
:100FC0001197CB01022E02C0969587950A94E2F7FD
:100FD000817081958527842385278C932F5F3F4FD0
:100FE0002530310559F70895809123069091F20537
:100FF000981301C008958F5F8770FACF882341F05E
:10100000809590915D06892380935D060C94580726
:101010000895882339F090915D06982B90935D0692
:101020000C9458070895882321F00E9451070C94CE
:1010300058070895882339F090915E06982B909375
:101040005E060C94580708952091D4053091D5057B
:101050002817390771F09093D5058093D405E09156
:101060008306F0918406309721F00084F185E02D0D
:10107000099408952091D2053091D3052817390796
:1010800071F09093D3058093D205E0918306F0919F
:101090008406309721F00680F781E02D09940895A9
:1010A000E0918306F0918406309721F00190F08161
:1010B000E02D099480E00895CF93DF93EC0181E067
:1010C000898B80915E069F81892B80935E0680913B
:1010D0005D069885892B80935D060E945807EA81FA
:1010E000FB81309739F06C897D89CE010696DF91BE
:1010F000CF910994DF91CF910895EF92FF920F93D2
:101100001F93CF93DF93EC018A85811139C0EB8067
:10111000FC8087E5F81A26E12E9DC0012F9D900DD9
:101120001124DC01A25FBE4F1496ED91FC9115973E
:10113000309731F054966D917C918C5E9E4F09955D
:1011400086E18E9D80018F9D100D1124025F1E4F40
:10115000F80187810E945107F8018085982F9095AA
:1011600080915D06892380935D060E94580718824E
:1011700019861B861E821D821092E5051092E405D9
:10118000DF91CF911F910F91FF90EF900895FA0199
:10119000811101C0FB0109948033910538F5880F56
:1011A000991F880F991FFC01E554FE4F528133812E
:1011B00080818370E181A82FB0E070E9879FC00132
:1011C000112484579B4FE80FF92FF11DB4976083CA
:1011D000FC01E50FF11DB4974083830F911DFC01C5
:1011E000B4972083A657BB4F81E08C930895FF925C
:1011F0000F931F93CF93DF93182F062FF42ED0E079
:10120000C0E02F2D402F612FCE010E94CC082196E7
:10121000C033D105B1F7DF91CF911F910F91FF90AE
:1012200008950C94F7080C94CC080F931F9310E0CA
:10123000F801EE0FFF1FE954FC4F9081905797FD86
:101240009195000F111FF801E854FC4F00810052E6
:10125000110B2003F001219FF00D112408E310E091
:10126000091B110997FD139540039001419F300D13
:101270001124E20FF31F9F01220F331F2E0F3F1F78
:1012800037FF02C021583F4F220F232F221F330B5D
:10129000620F1F910F9108950F931F93522F10E02B
:1012A000F801EE0FFF1FE854FC4FA081A052BB0BCA
:1012B0009D015203F001539FF00D1124000F111FE7
:1012C000D801A954BC4F0C910057110B4003900159
:1012D000419F300D11242E0F3F1F37FF02C0215CAC
:1012E0003F4F96E0359527959A95E1F7620F1F914C
:1012F0000F9108950F931F93522F10E0F801EE0FF6
:10130000FF1FE854FC4FA081A052BB0B9D0152036C
:10131000F001539FF00D1124000F111FD801A954A3
:10132000BC4F0C910057110B40039001419F300DB1
:1013300011242E0F3F1F37FF02C021583F4F220FAD
:10134000232F221F330B620F1F910F910895EF92ED
:101350000F93972F23E0029FB00111247595679595
:101360006E0D792F0F91EF900895322F50E0FA0112
:10137000EE0FFF1FE854FC4F9081905297FD91951E
:10138000440F551FFA01E954FC4F2081231B330BF6
:10139000290F311D97FD3A95620F0895E42FF0E073
:1013A000EE0FFF1FE854FC4F6081621B0895E42F8D
:1013B000F0E0EE0FFF1FE954FC4F6081621B0895BF
:1013C000622F0895E42FF0E0EE0FFF1FE954FC4F69
:1013D000408134EE439F412D1124E82FF0E050E08E
:1013E000445E5F4FDA01A21BB1099D01B7FF03C044
:1013F00031952195310993E0220F331F9A95E1F73A
:10140000AF01421B530B9A0157FD20E0582F259F37
:10141000212D1124822F0895E42FF0E0EE0FFF1FFD
:10142000E954FC4F408134EE439F412D1124E72FB6
:10143000F0E050E0445E5F4FDA01A21BB1099D016C
:10144000B7FF03C031952195310993E0220F331F77
:101450009A95E1F7AF01421B530B9A0157FD20E02B
:10146000279F212D1124722F0895FC019B010097C5
:1014700029F480E077FF2BC080E80895AC0197FF46
:1014800004C044275527481B590BB901640F751F29
:1014900037FD10C0241B350BC901A5E0880F991F2B
:1014A000AA95E1F70E94ED3180E2861BF7FF0FC09D
:1014B00081950895CB0165E0880F991F6A95E1F742
:1014C000BA01621B730B0E94ED3180E6EECF0895E6
:1014D000EF920F93CF93DF93D72FC82FC9010E1927
:1014E000BA010E94350A602F681B7D2F8C2FDF9177
:1014F000CF910F91EF9008950F93CF93DF93D72F54
:10150000C82FC901BA010E94350A682F600F7D2FCC
:101510008C2FDF91CF910F910895EF920F931F932E
:10152000CF93DF93D62FC72F182FC9010E19010FA4
:10153000BA010E94350A081B202F219F212D11245A
:10154000822F6D2F7C2FDF91CF911F910F91EF9004
:101550000895EF920F931F93CF93DF93D62F172FFA
:10156000C82FC9010E19070FBA010E94350A702F42
:10157000781B719F712D11246D2F8C2FDF91CF91CE
:101580001F910F91EF9008950F931F93CF93DF93C7
:10159000D62FC72F182FC901212F201B022FBA01C8
:1015A0000E94350A982F990F990F891B800F282FB9
:1015B000219F212D1124822F6D2F7C2FDF91CF9120
:1015C0001F910F9108950F931F93CF93DF93D62F01
:1015D000172FC82FC901272F201B022FBA010E94E5
:1015E000350A982F990F990F782F791B700F719FDB
:1015F000712D11246D2F8C2FDF91CF911F910F91A1
:101600000895E82F86FDE0952E2F2F7086FD2F5F21
:10161000E695E695E695E670F0E0ED54FE4F918193
:10162000929F902D212D112492959F702295207FBD
:10163000922B2081920F87FD919580E8890F089564
:10164000AC018230910508F408959FEF413E8EE190
:10165000580740F49A0195E0369527959A95E1F759
:1016600098E0920F61E0E62FE90FFF27FF1F9F012F
:1016700035952795822F229FF001239FF00DF00DC5
:1016800011244E175F0738F49FEF920F961758F703
:101690008FEF860F08952F3FE9F361E0620FF6CFD9
:1016A0000F93CF93DF93D72FC82F47FD419588E342
:1016B00090E0841B910947FD9395889FB001899F15
:1016C000700D700D1124229FC001239F900D900D6D
:1016D0001124860F971F0E94200B982F990F890FB6
:1016E000682F600F7D2F8C2FDF91CF910F91089580
:1016F00030E020E0869F212D969F200D311D112482
:10170000C9010895AF92BF92CF92DF92FF920F93DB
:101710001F93CF93DF93362F472FE82FF0E0EA5542
:10172000FE4F71110FC0E4918E2F2E2F6E2F722F4E
:10173000DF91CF911F910F91FF90DF90CF90BF90DD
:10174000AF900895C72FD0E02491F22E022F10E021
:1017500056E0659FC0011124EFEFF0E0BF010E9449
:10176000D931832F90E0880F991F35E5369FD0013E
:10177000379FB00D11248A1B9B0B982F990F980F40
:101780006F01CC1ADD0AC09ED001C19EB00DD09E63
:10179000B00D11248B2F499FA0011124452F5527EF
:1017A0006F01C41AD50AC09EA001C19E500DD09EE3
:1017B000500D11245F01A91AB108AC9E6001AD9EC5
:1017C000D00CBC9ED00C1124CD2CDD24EC19FD09CD
:1017D000E09FE001E19FD00DF09FD00D1124ED2F8F
:1017E00062307105A1F050F46115710509F49ECFC6
:1017F0006130710581F0EB2F852F98CF6430710532
:1018000069F080F06630710509F490CFF4CFE22FD3
:101810002B2F8D2F8BCFE22F252F88CFEB2F822FD1
:101820002D2F84CF2B2F8F2DE52F80CF9F92AF921E
:10183000BF92CF92DF92EF92FF920F931F93CF93BD
:10184000DF936C018091A001C82FCC0FCC0FC80F83
:1018500015E01C0FB12E113310F030E3B32E609160
:10186000F106669566958091E9069091EA060E94D8
:10187000780BF82E80E48F0D0E94010B90E8A92EC2
:10188000A80E8F2D0E94010B20E8922E980ED0E01A
:10189000CB1580F081E0103308F080E0DF91CF912C
:1018A0001F910F91FF90EF90DF90CF90BF90AF907E
:1018B0009F900895FE01E95EFB4F80819091A10108
:1018C0008923A1F06091EE067091EF068091F006F9
:1018D000EF2C0C2F292D4A2DF60109950E94820B21
:1018E000462F282F672FCE010E9413092196D0CFB3
:1018F0007F928F929F92AF92BF92CF92DF92EF92A0
:10190000FF920F931F93CF93DF935C018091A0010F
:10191000C82FCC0FCC0FC80F15E01C0FF12E1133C0
:1019200010F030E3F32E6091F10666958091E906A0
:101930009091EA060E94780B782ED0E0CF1590F0B7
:1019400081E0103308F080E0DF91CF911F910F917B
:10195000FF90EF90DF90CF90BF90AF909F908F90CF
:101960007F900895FE01E95EFB4F80819091A10177
:101970008923C9F1CE01880F991F8D599C4FFC0115
:10198000EC5AFF4F2081422F4057550B6A018B5A6A
:101990009F4FFC018081282F2052330B4901449F27
:1019A0009001459F300D300D1124889CC001899C09
:1019B000900D900D1124820F931F0E94200B082F71
:1019C0006091EE067091EF068091F006E72C94018D
:1019D000A601F50109950E94820B462F282F672F3B
:1019E000CE010E9413092196A9CFCF92DF92EF92E8
:1019F000FF920F931F93CF93DF937C018091A001FF
:101A0000C82FCC0FCC0FC80F15E01C0FD12E1133EF
:101A100010F030E3D32E6091F10666958091E906CF
:101A20009091EA060E94780BC82ED0E0CD1568F0A0
:101A300081E0103308F080E0DF91CF911F910F918A
:101A4000FF90EF90DF90CF900895FE01E95EFB4F8D
:101A500080819091A101892311F1CE01880F991FF6
:101A60008D599C4FFC01EB5AFF4F20812052330BC4
:101A70008C5A9F4FFC0140814057550B6091EE06F8
:101A80007091EF068091F0060C2DF70109950E94E8
:101A9000820B462F282F672FCE010E941309219613
:101AA000C5CFDF92EF92FF920F931F93CF93DF93F7
:101AB0007C018091A001C82FCC0FCC0FC80F15E07E
:101AC0001C0F012F113308F000E36091F1066695B9
:101AD00066958091E9069091EA060E94780BD82ECF
:101AE000D0E0C01760F081E0103308F080E0DF91B3
:101AF000CF911F910F91FF90EF90DF900895FE011D
:101B0000E95EFB4F80819091A101892391F0609162
:101B1000EE067091EF068091F0062D2D4C2FF70107
:101B200009950E94820B462F282F672FCE010E9415
:101B300013092196D6CF9091810692FF06C0282FD7
:101B400028712830F9F4877F846093FF06C0282F1E
:101B500028712831F1F4877E84612091820620FF6C
:101B600006C0382F38713830D9F4877F816021FF63
:101B700006C0282F28712831D1F4877E816194FD19
:101B8000877E0895282F24712430F9F68B7F886092
:101B9000DCCF282F2471243101F78B7E8861DDCFC3
:101BA000382F3171313019F78E7F8860E0CF282FC0
:101BB0002171213121F78E7E8861E1CFCF93DF93B0
:101BC000972F70E026E0929F600D711D1124FB019C
:101BD00034E5839FE00DF11D1124EE0FFF1FEA5540
:101BE000FD4FC591D491CE01C238D105B9F1E8F5C8
:101BF000C133D10509F499C050F5C932D10509F4B2
:101C00008DC0CA32D10509F497C0C11542E5D40789
:101C100008F0C4C0C11521E5D20708F038C1C83E9C
:101C2000D10508F09DC0C03ED10568F5C83AD10580
:101C300008F089C0C53AD10508F005C1C130D10509
:101C400011F1209709F443C02497E8F440C0C5334C
:101C5000D10509F45CC0C933D105B9F620918106DC
:101C6000237089F080EE90E00EC0C33ED10591F163
:101C700068F4C03ED105F9F0C23ED10531F620919D
:101C8000810622FD20C0DF91CF910895C63ED10587
:101C900061F1C73ED10581F1C43ED10509F0B5CF50
:101CA0002091820621FFEFCF8091810684FD0FC035
:101CB00087EE90E0E8CF2091810620FD19C1309198
:101CC000820630FFE0CF83EE90E024FFDCCF90E08F
:101CD00080E0D9CF2091810622FD0DC1309182068E
:101CE00030FDC0CF24FFCFCFF2CF2091810623FF5C
:101CF000CACF24FDECCFDCCF2091810623FDFEC0AE
:101D00003091820631FFEECF84EE90E0BCCF20917F
:101D1000810625FFB8CF89E290E0B5CF20918106FA
:101D200025FFB1CF85E390E0AECF2091810626FF5D
:101D3000AACF8AE290E0A7CF2091810626FFA3CF09
:101D400081E390E0A0CFCF3BD10508F6C85AD0E0A0
:101D5000CC0FDD1FCA5DDC4F88819981946493CFDD
:101D6000C11530E2D30760F4C11541E0D40708F093
:101D70008ACFCE019065C03FD10508F084CFA7CFB0
:101D8000C11580E4D80708F4A2CFC11590E5D907A2
:101D900008F061C0CE019F70906A75CFC11526E52D
:101DA000D20718F5C11535E5D30708F086C0C1156F
:101DB00044E5D40708F07CC09C2F96959695AE011B
:101DC00043705527C115D34508F466C021E030E0C3
:101DD00002C0220F331F4A95E2F740E2949FC001F0
:101DE0001124822B932B9A684ECFC1159AE5D907FF
:101DF00078F4C11529E5D20708F069C0C11538E5A6
:101E0000D30708F464CF9C2F8827806F906A3BCF5C
:101E1000C1154BE5D40708F45ACFC1158CE5D80796
:101E200008F462C0CE0190568115904208F04FCF61
:101E30008D2F8F710E949B0D90E0982F8827882707
:101E40009F718C2B42C0C55AD0E0CD5DDC4F88819C
:101E500090E0906418CF9E01E4E036952795EA95CE
:101E6000E1F723708C2F86958695837030E2839FEF
:101E7000C0011124922BC37021E030E002C0220F78
:101E8000331FCA95E2F7822B932B9C68FCCE9C2FC4
:101E90008827816F906AF7CE21E030E002C0220FE0
:101EA000331F4A95E2F740E2949FC0011124EBCF23
:101EB0009C2F8827846F906AE6CE8C2F0E949B0D02
:101EC00090E0982F882788279F719062DCCE8C2F16
:101ED0008F700E949B0D34E0D695C7953A95E1F737
:101EE000CF709C2F9069CFCECE0199279066CBCE34
:101EF00089E390E0C8CE82EE90E0C5CE86EE90E019
:101F0000C2CEBF92CF92DF92EF92FF920F931F93B8
:101F1000CF93DF938C01C090B006D090B106E090D3
:101F2000B206F090B3068091600690916106A09190
:101F30006206B0916306C82AD92AEA2AFB2ACFE1B1
:101F4000D0E0BC2ED701C6010C2E04C0B695A795D3
:101F5000979587950A94D2F780FD0EC0219788F750
:101F6000B12C8B2DDF91CF911F910F91FF90EF90AE
:101F7000DF90CF90BF900895B8018C2F0E94DE0DA6
:101F8000019761F3EECFCF93DF93EC010E94810FB5
:101F9000BE01DF91CF910C94DE0D0E94C30F292F5B
:101FA0002F7092959F7092509E3078F4E92FF0E058
:101FB000E55BFB4C0C940132803F19F020F4883E25
:101FC00020F481E00895843FE1F380E00895883EA5
:101FD000C0F3813FD1F7F5CF822F86958695869500
:101FE0000895CF93DF939C013A9521153F4168F501
:101FF000EC01CC27D170DC01AA27B270AC014427D8
:1020000054709C012227387094FF11C080E1CD2BC1
:1020100009F480E0AB2B09F08062452B09F0806465
:10202000232B09F08068FB01DF91CF91099481E0B7
:10203000CD2B09F480E0AB2B09F08260452B09F031
:102040008460232B81F38860EECFDF91CF910895D8
:10205000FC018081813041F49185911114C09285F9
:10206000992389F082E00895823041F481858111BD
:1020700007C08285811106C083E0089586E0089537
:1020800085E0089584E0089527982F98089526986C
:102090002E98089525982D98089556985E9808953D
:1020A000279A2F9A0895269A2E9A0895259A2D9A5E
:1020B0000895CF92DF92EF92FF92CF936B017C0154
:1020C0000E94FE06C82F0E944D100E944A100E94D6
:1020D00047100E944410C150C73040F4EC2FF0E08C
:1020E000E75AFB4C0C9401320E945610C701B6010E
:1020F000CF91FF90EF90DF90CF9008950E945610FF
:102100000E945310F3CF0E9456100E945010EECF41
:102110000E9456100E945310F8CF209828982198BA
:10212000299822982A9823982B9852985A9853982D
:102130005B983E98469808958098889A8198899AE5
:1021400084988C9A85988D9A86988E9A87988F9A7B
:102150000895CF93DF9300D00F92CDB7DEB7909163
:10216000DC06943019F589837B836A8383E080934E
:10217000E9008FEF9091E800815095FD06C095ED44
:102180009A95F1F700008111F5CF8091E80085FF65
:102190000DC050E040E063E070E0CE0101960E9487
:1021A000AC038091E8008E778093E8000F900F9049
:1021B0000F90DF91CF910895BC0184E00C94A91099
:1021C000BC0183E00C94A9109C0182E08093E9009B
:1021D0009FEF8091E800915085FD06C085ED8A95BE
:1021E000F1F700009111F5CF8091E80085FF0CC058
:1021F00050E040E065E070E0C9010E94AC038091CE
:10220000E8008E778093E8000895CF93DF93EC0188
:1022100080919F018823B1F18091810687FF32C0B0
:1022200060E283E08093E9008FEF9091E8008150B5
:1022300095FD06C095ED9A95F1F700008111F5CF57
:102240008091E80085FF1BC080919F0170E050E005
:1022500040E0811104C050E040E068E070E0CE0151
:102260000E94AC038091E8008E778093E80080E2C2
:10227000FE01AAEBB6E001900D928A95E1F7DF919D
:10228000CF91089568E081E0CDCFEF92FF920F9358
:102290001F93CF93DF930E944D100E944A100E941B
:1022A00047100E94441088E8E82EF12C8FEF90E050
:1022B000F701918380830AE810E0F801918380831D
:1022C000CCE8D0E0998388830E945610FFEF20E786
:1022D00082E0F15020408040E1F700C000000E9401
:1022E00053109FEFE0E7F2E09150E040F040E1F75B
:1022F00000C000000E9450102FEF80E792E02150B4
:1023000080409040E1F700C000000E944A10EFEFCB
:10231000F0E722E0E150F0402040E1F700C000008B
:102320000E9447108FEF90E7E2E081509040E0403C
:10233000E1F700C000000E94441080916F06877092
:10234000FFEF8F9FC00111249595879595958795EF
:102350009927F70191838083F80191838083998382
:1023600088830E944D100E944A100E944710DF91FE
:10237000CF911F910F91FF90EF900C944410CF9349
:1023800084E090E00E949E33C82F81E290E00E949A
:102390009E33982F8C2FCF9108956FEE7EEF90E0B3
:1023A00080E00E94E03360E082E090E00E94C2336F
:1023B00060E083E090E00E94C233109260061092C9
:1023C0006106109262061092630660E084E090E07D
:1023D0000E94C23360E081E290E00E94C23360E07C
:1023E00085E090E00E94C23360E086E090E00E94C9
:1023F000C2336FEF87E090E00E94C23340E050E0CC
:10240000BA0188E090E00E94D43360E08DE090E073
:102410000E94C23340E050E0BA0188E190E00E949F
:10242000D43360E087E190E00E94C23340E050E0A6
:10243000BA018CE190E00E94D43360E080E290E049
:102440000E94C23340E050E0BA0188E190E00E946F
:10245000D43310926F06109270061092710610928B
:10246000720684E0806180936F0640916F06509100
:10247000700660917106709172068FE090E00E9484
:10248000D43340E050E0BA0183E190E00C94D433BF
:102490000F931F93CF93DF93082F000FEB0114E2EC
:1024A00010937604E7E7F4E0DE018D91819384E0F8
:1024B000E738F807D1F724E630E041E150E066E77D
:1024C00074E0802F0E94AE31105F6096143B41F79C
:1024D000DF91CF911F910F91089580918A048823F5
:1024E00029F06CE874E084E70E94481210928A0494
:1024F00080918B04882329F06CE175E087E70E94C6
:10250000481210928B040895E6E7F4E0608341835B
:1025100024E630E042E050E0BF01880F0C94AE3179
:10252000EF92FF920F931F93CF93DF93E82E062F26
:1025300010E000531A4FF8018081882381F0F2E106
:102540006F9FE0011124C455DA4FF12C49916F2D92
:102550008E2D0E948412F39482E1F812F7CFF801D5
:102560001082DF91CF911F910F91FF90EF9008950E
:10257000CF93DF93C82F4BE06DEF0E94841240E0B1
:102580006AE08C2F0E9484128FE39CE90197F1F797
:1025900000C0000040E060E08C2F0E94841240E008
:1025A00061E08C2F0E94841240E066E08C2F0E9434
:1025B000841240E06DEF8C2F0E948412D0E040E046
:1025C0006D2F8C2F0E948412DF5FD231C1F740E063
:1025D0006D2F8C2F0E948412DF5FD432C1F740E050
:1025E0006D2F8C2F0E948412DF5FD43BC1F74BE02C
:1025F0006DEF8C2F0E94841241E06AE08C2F0E94C4
:10260000841240E06DEF8C2FDF91CF910C948412F7
:102610006F927F928F929F92AF92BF92CF92DF92F2
:10262000EF92FF920F931F93CF93DF930E94F930A5
:1026300084E70E94B81287E70E94B8126BEBE62E7F
:1026400061E0F62ED12CC12C72E1772EE8E08E2EBF
:10265000912CAA24A394B12C66246394F7014181A0
:1026600050E0CA01849702810452110BC381C45205
:10267000DD0BF601EE0FFF1FEE0FFF1FE554FE4FBF
:102680002081237030E0FC0197FD379643E0F595FB
:10269000E7954A95E1F7729EA001739E500D1124B3
:1026A00044555A4FE40FF52FF11DB4010E94ED314E
:1026B000A50101C0440F8A95EAF78081842B8083AD
:1026C000F80117FD379693E0F595E7959A95E1F7B0
:1026D000729EC001739E900D112484559A4FE80F8D
:1026E000F92FF11DC801B4010E94ED31A50101C00F
:1026F000440F8A95EAF78081842B8083FE01D7FD01
:10270000379683E0F595E7958A95E1F7729EC001CB
:10271000739E900D112484559A4FE80FF92FF11DE7
:10272000CE01B4010E94ED31A50101C0440F8A958C
:10273000EAF78081842B808320533A4FF90160822D
:10274000FFEFCF1ADF0A84E0E80EF11CE0E3CE16BB
:10275000D10409F083CF60E084E70E94901261E029
:1027600087E7DF91CF911F910F91FF90EF90DF905E
:10277000CF90BF90AF909F908F907F906F900C9470
:1027800090121F93CF93DF93EC01FC01E95EFB4FA6
:1027900080816823A1F00E945332182F0E94533287
:1027A000612F782F8091F0060E94820B462F282FF0
:1027B000672FCE01DF91CF911F910C941309DF9108
:1027C000CF911F910895DF92EF92FF920F931F9385
:1027D000CF93DF938C01FC01E95EFB4F808168237E
:1027E00081F1D090EF06D091F006C091EE06EC2E6C
:1027F000F12C0E945332282FC7018C549F4F68E65A
:1028000071E00E94ED318E199F0997FD0396959511
:1028100087959595879523706C2F289F600D1124BF
:102820007D2D8D2F0E94820B462F282F672FC801E8
:10283000DF91CF911F910F91FF90EF90DF900C945B
:102840001309DF91CF911F910F91FF90EF90DF90CF
:10285000089545E050E06CE170E08DEE96E00C9458
:10286000B2339091ED06937041F08093EE06609341
:10287000EF064093F0060C9429140895EDEEF6E06F
:10288000438120E1421B08F440E08181628190E0B5
:102890000C943114EDEEF6E0438120E1420F08F490
:1028A0004FEF8181628190E00C943114EDEEF6E0FF
:1028B000628120E1621B08F460E08181438190E045
:1028C0000C943114EDEEF6E0628120E1620F08F421
:1028D0006FEF8181438190E00C943114EDEEF6E0CE
:1028E0008181438162818850990B0C943114EDEE03
:1028F000F6E0818190E04381628108960C94311466
:102900009091ED06937089F0811107C094609093C7
:10291000ED061092A3010C942914893110F09066F1
:10292000F6CF880F880F982BF2CF08958091ED068F
:1029300086958695815009F488E10C9480148091E5
:10294000ED06869586958F5F893108F081E00C94BD
:1029500080140C948014EDEEF6E0248130E1230F16
:1029600008F42FEF24830C942914EDEEF6E0248173
:1029700030E1231B08F420E024830C942914EDEEAD
:10298000F6E085E380838091A4019091A501A09158
:10299000A60181839283A3838CE384830C942914FE
:1029A0000E94081390E080E00E94AC338F3E9E4F5F
:1029B00021F00E94CD110E94BF1445E050E06CE16F
:1029C00070E08DEE96E00E948E338091ED068C7F54
:1029D00011F40C94BF14089580E290E09093940158
:1029E000809393018091680481110EC00E94F93098
:1029F00081E0809368042FEF83ED90E321508040C5
:102A00009040E1F700C0000064E670E080E40E94BE
:102A1000FF309093940180939301892B09F04EC06D
:102A200064E670E080E00E945B31909394018093B3
:102A30009301892B09F042C064E670E080E00E94B7
:102A40005B319093940180939301892BB9F564E6EF
:102A500070E08FE30E945B31909394018093930127
:102A6000892B61F50E94D53164E670E080E40E9414
:102A7000FF309093940180939301892BF9F464E6DD
:102A800070E08CE00E945B319093940180939301FD
:102A9000892BA1F464E670E080E00E945B319093A2
:102AA000940180939301892B49F464E670E08FE3ED
:102AB0000E945B3190939401809393010E94D531E1
:102AC000809193010895CF93C82F873070F580913E
:102AD000930190919401892B89F564E670E080E47C
:102AE0000E94FF309093940180939301892BD1F43D
:102AF00064E670E082E10E945B31909394018093E0
:102B00009301892B79F481E090E001C0880FCA9588
:102B1000EAF764E670E080950E945B31909394013F
:102B200080939301CF910C94D5318A30B9F040F461
:102B3000883071F0893079F0209A2898CF910895E3
:102B40008C3091F070F08D30B9F73E9A4698F6CF00
:102B5000219A2998F3CF229A2A98F0CF239A2B987A
:102B6000EDCF529A5A98EACF539A5B98E7CFCF931A
:102B7000873050F58091930190919401C0E0892BAA
:102B800071F464E670E081E40E94FF309093940158
:102B900080939301892B31F0C0E00E94D5318C2FB6
:102BA000CF91089584E690E00E948A3197FF05C096
:102BB0009093940180939301EFCFC82FC09510920A
:102BC000940110929301E9CFCFB18FB1869586958C
:102BD0008C73C3708C2BC82FC095E1CF1F920F92BE
:102BE0000FB60F9211242F933F934F935F936F93E0
:102BF0007F938F939F93AF93BF93EF93FF938091B6
:102C0000E10082FF09C08091E20082FF05C080914F
:102C1000E1008B7F8093E1008091DA0080FF24C087
:102C20008091D80080FF20C08091DA008E7F809351
:102C3000DA008091D90080FF9BC080E189BD82E1EC
:102C400089BD09B400FEFDCF81E08093DC06809150
:102C5000B706811109C00E945C030E94290480917B
:102C6000E20084608093E2008091E10080FF17C061
:102C70008091E20080FF13C08091E2008E7F8093FC
:102C8000E2008091E20080618093E2008091D800B0
:102C900080628093D80019BC85E08093DC06809127
:102CA000E10084FF29C08091E20084FF25C080E11B
:102CB00089BD82E189BD89B5982F917080FFFBCFD6
:102CC0008091D8008F7D8093D8008091E1008F7E25
:102CD0008093E1008091E2008F7E8093E2008091FA
:102CE000E20081608093E2008091DD06882309F490
:102CF00045C084E08093DC068091E10083FF27C01B
:102D00008091E20083FF23C08091E100877F809360
:102D1000E10082E08093DC061092DD068091E10004
:102D20008E7F8093E1008091E2008E7F8093E200AD
:102D30008091E20080618093E20042E060E080E008
:102D40000E94F7038091F00088608093F000FF916B
:102D5000EF91BF91AF919F918F917F916F915F9113
:102D60004F913F912F910F900FBE0F901F9018958C
:102D700019BC1092DC061092B70676CF8091E30062
:102D800087FD93E09093DC06B7CF78941F921FB62F
:102D90001F9211248F939F93AF93BF9380916406EA
:102DA00090916506A0916606B09167060196A11DF7
:102DB000B11D8093640690936506A0936606B09358
:102DC0006706BF91AF919F918F911F901FBE1F907B
:102DD00018952FB7F8948091640690916506A0919C
:102DE0006606B09167062FBF08950E94E9169C0100
:102DF00090919C0680919D06982B21F030939A0625
:102E00002093990690919E0680919F06982B21F021
:102E10003093970620939606E0918306F0918406FE
:102E2000309731F00480F581E02D8BE996E009942C
:102E3000089510925D0610925C060E94580785E086
:102E4000EBE9F6E0DF011D928A95E9F7109298060A
:102E500010929506109268060E94F51690E080E0A8
:102E60000E943A0890E080E00C942408CF92DF9210
:102E7000EF92FF92CF93DF9300D000D0CDB7DEB7B3
:102E80000E9459106B017C018091B406882321F0C7
:102E90008091B506811115C0C092B006D092B106DE
:102EA000E092B206F092B3060E9419170F900F90AD
:102EB0000F900F90DF91CF91FF90EF90DF90CF9028
:102EC0000895198282E08A83C701B6010E94FE0636
:102ED0008B838EEF8C8364E0CE0101960E944A05BD
:102EE000DBCF0F931F9341E050E060E070E004C03F
:102EF000440F551F661F771F8A95D2F7CB01BA0181
:102F000060957095809590950091B0061091B106EE
:102F10002091B2063091B30660237123822393235C
:102F20001F910F910C94361790915B068095892321
:102F300080935B06282F277071F4282F082E000C31
:102F4000330B9217130639F08595859585950E9468
:102F5000711710925B0608950F931F9341E050E0A4
:102F600060E070E004C0440F551F661F771F8A950C
:102F7000D2F78091B0069091B106A091B206B091BF
:102F8000B3068A019B01082B192B2A2B3B2BC90165
:102F9000B8011F910F910C943617609360067093DF
:102FA000610680936206909363060C941917109241
:102FB0005E0680919F01EAE4F4E0882359F0809155
:102FC000810687FF07C08EE1DF011D928A95E9F730
:102FD0000C94191786E0F8CF1F93CF93DF93CDB7EA
:102FE000DEB7AA970FB6F894DEBF0FBECDBF8EED49
:102FF00096E02091F100FC012193CF01F6E0863E9E
:103000009F07B9F78091DF06893009F444C018F5AD
:10301000823009F4B9C0833009F46EC0813031F5D3
:103020008091DE06813A11F58091E800877F8093D8
:10303000E8008091E2069091E306892B41F560E279
:103040008AEB96E070E00E94E9048091E8008B77BB
:103050008093E8000BC08B3009F46BC008F483C088
:10306000823409F4A2C0853409F4BCC08091E80020
:1030700083FF50C28091DE069091DF069A3008F0FF
:1030800049C2E92FF0E0E05AFB4C0C94013260E0B9
:1030900090E080E0D7CF8091DE06813239F78091D1
:1030A000E2069091E306009711F00297F9F68091FD
:1030B000E800877F8093E8008091E80082FF17C0D6
:1030C0009091F3008091F200029729F48091F10031
:1030D0008B7F813021F48091F1008093B90680913B
:1030E000E8008B778093E8000E94D803BFCF8091DF
:1030F000DC068111E1CFBACF8091DE06813A09F07A
:10310000B5CF8091E2069091E306892B09F0AECF0E
:103110008091E800877F8093E8008091E80080FF3D
:10312000FCCF80919F018093F1008091E8008E7721
:10313000D9CF8091DE06813209F098CF8091E206E6
:103140009091E306892B09F091CF8091E800877F69
:103150008093E8000E94D8038091E00680939F014D
:103160000E94D71783CF8091DE06813209F07ECF8F
:103170008091E800877F8093E8000E94D8038091C7
:10318000E1068093B80672CF8091DE06813A09F09D
:103190006DCF8091E800877F8093E8008091E80000
:1031A00080FFFCCF8091B806BECF8091DE06803CC8
:1031B00009F05CCF8091E2069091E306029739F521
:1031C0008091E0069091E106892B09F58091E80055
:1031D000877F8093E8006BE170E080E595E00E94D6
:1031E0008A0482CF8091DE06803C09F03FCF809137
:1031F000E2069091E306079751F48091E800877FFB
:103200008093E80062EB70E08EE994E0E8CF809173
:10321000EB0080628093EB0029CF803899F08238F0
:1032200009F078C18091E2068F70873008F072C192
:103230008093E9008091EB0085FB882780F910924C
:10324000E90006C08091DA069091DB069111826058
:103250009091E800977F9093E8008093F10010929E
:10326000F1008091E8008E7751C1882309F43FC1B5
:10327000823009F04FC18091E006811142C18091F6
:10328000E2068F702FEF280F263008F043C180939D
:10329000E9002091EB0020FF34C1933031F480919C
:1032A000EB0080628093EB002CC19091EB00906169
:1032B0009093EB0021E030E001C0220F8A95EAF7FD
:1032C0002093EA001092EA008091EB008860EACF38
:1032D000811120C11091E0061F778091E300807872
:1032E000812B8093E3008091E800877F8093E80042
:1032F0000E94D8038091E80080FFFCCF8091E3001A
:1033000080688093E30082E0111183E08093DC0603
:1033100001C18058823008F0FDC08091E006909194
:10332000E1068C3D23E09207A1F583E08A838AE2DF
:1033300089834FB7F894DE01139620E03EE051E216
:10334000E32FF0E050935700E49120FF03C0E29593
:10335000EF703F5FEF708E2F90E0EA30C0F0C796BD
:103360008D939D932F5F243159F74FBF8091E800D3
:10337000877F8093E8006AE270E0CE0101960E94A8
:10338000E9048091E8008B778093E800C3C0C09681
:10339000E7CF2091E2063091E306492F55274330CD
:1033A000510551F1A0F44130510509F459C06BE6C3
:1033B00070E08CE695E04230510509F0ABC02091F9
:1033C000E800277F2093E8000E948A04DACF413288
:1033D000510539F14232510591F14F30510509F053
:1033E00099C0E3E4F6E0649170E081E496E0611551
:1033F000710509F48FC0E3CF99278130910571F0F1
:10340000009731F0029709F085C0E9EEF5E002C0BF
:10341000EDE3F6E0649170E0CF01E9CFEBE0F6E098
:10342000F9CF2330310508F075C0220F331FF901A1
:10343000E35AFC4F8081918169E070E0C0CF233076
:10344000310508F067C0F901EE0FFF1FE95AFC4F84
:10345000808191812C5A3C4FF901608170E0C7CF87
:1034600062E170E087ED95E0AACF803809F052C0A4
:103470008091E800877F8093E8008091DD0680934B
:10348000F100EFCE811146C01091E006123008F035
:1034900041C08091E800877F8093E8001093DD06AB
:1034A0000E94D803112311F084E005C08091E3004D
:1034B00087FDFACF81E08093DC0642E061EC81E099
:1034C0000E94F70342E061EC82E00E94F70342E2CF
:1034D00061EC83E00E94F70342E361EC84E00E9428
:1034E000F70342E360EC85E00E94F70313C080918C
:1034F000E006813079F481E0933009F080E0809338
:10350000DB061092E9008091E800877F8093E80055
:103510000E94D8038091E80083FF0AC08091E800F0
:10352000877F8093E8008091EB0080628093EB00BE
:10353000AA960FB6F894DEBF0FBECDBFDF91CF9134
:103540001F9108951F920F920FB60F9211242F937F
:103550003F934F935F936F937F938F939F93AF931B
:10356000BF93CF93DF93EF93FF93D091E900DF7088
:103570008091EC00C82FC17080FDC0E81092E90076
:103580008091F000877F8093F00078940E94EC1780
:103590001092E9008091F00088608093F000CD2BBC
:1035A000CF70C093E900FF91EF91DF91CF91BF9170
:1035B000AF919F918F917F916F915F914F913F91CB
:1035C0002F910F900FBE0F901F901895882379F1BF
:1035D0009CEF980F913A38F4682F88E494E00E94A9
:1035E0009F060C94580790E2980F983050F487701B
:1035F00091E001C0990F8A95EAF7892F0E9451073F
:10360000F0CF9BE5980F933020F490E080E00C948D
:103610003A0898E5980F973120F490E080E00C94F8
:103620002408803F20F00E9461050C94F51608954F
:10363000CF93DF93EC010E94E61ACE01805E9109E0
:10364000089720F06EEF77E0209711F463E178E0BF
:10365000CE01DF91CF910C94F10F8FE39CE901979C
:10366000F1F700C0000080910B01823079F028F45E
:10367000813039F010920B010895833011F08530BC
:10368000C9F78FE090E00E94181BF4CF8FE490E020
:10369000FACF8FE39CE90197F1F700C00000809119
:1036A0000B01823079F028F4813039F010920B014F
:1036B0000895833011F08530C9F78EE090E00E94C4
:1036C000181BF4CF82E590E0FACF8FE39CE90197D5
:1036D000F1F700C0000080910B01823079F028F4EE
:1036E000813039F010920B010895833011F085304C
:1036F000C9F78DE090E00E94181BF4CF81E590E0BF
:10370000FACF8FE39CE90197F1F700C000008091A8
:103710000B01823079F028F4813039F010920B01DE
:103720000895833011F08530C9F78BE090E00E9456
:10373000181BF4CF80E590E0FACF8FE39CE9019766
:10374000F1F700C0000080910B01823079F028F47D
:10375000813039F010920B010895833011F08530DB
:10376000C9F78DE290E00E94181BF4CF8EE290E042
:10377000FACF8FE39CE90197F1F700C00000809138
:103780000B01823079F028F4813039F010920B016E
:103790000895833011F08530C9F787E290E00E94E8
:1037A000181BF4CF87E590E0FACFCF93C82F88237A
:1037B00009F46EC08CEF8C0F813AB8F580919F01AF
:1037C000882311F18091810687FF1EC0EC2FE695BA
:1037D000E695E695F0E0E85BFB4F828190E04C2FA8
:1037E000477021E030E002C0220F331F4A95E2F714
:1037F00082239323892B89F06C2F88E494E00E9424
:103800009F060E94580709C0EAE4F4E08191C817B6
:1038100099F384E0E035F807C9F76C2F88E494E069
:103820000E94C906CF910C94580780E28C0F883013
:1038300068F4C77021E030E001C0220FCA95EAF7B2
:1038400080915E06822B80935E06ECCFEBE5EC0F59
:10385000E33040F4F0E0ED5DFC4F808190E0CF91EB
:103860000C943A08E8E5EC0FE73150F4F0E0EE0F85
:10387000FF1FEA5DFC4F80819181CF910C94240859
:10388000C03F30F08C2F0E942806CF910C94F51683
:10389000CF910895CF93C82F0E94D51BC93349F407
:1038A0002FEF87EE93E0215080409040E1F700C079
:1038B00000008C2FCF910C94E61A0F931F93CF9397
:1038C000DF93C62FD42F022FFC0182818823A1F021
:1038D0006093E8060E94E9169093E7068093E60657
:1038E000C77081E001C0880FCA95EAF7DF91CF91D8
:1038F0001F910F910C941A088091E806681335C047
:103900008091E6069091E7060E949006883C91051A
:1039100060F510E21D0FCD17B9F080E28C0F8830F2
:1039200040F4C77081E001C0880FCA95EAF70E9491
:103930001308183048F481E09D2F977001C0880F5C
:103940009A95EAF70E941A08802F0E944A1C1830A4
:1039500098F4D77081E001C0880FDA95EAF7DF911B
:10396000CF911F910F910C941308C77081E001C093
:10397000880FCA95EAF7F3CFDF91CF911F910F918E
:103980000895CF93DF93EC01805E9109089720F0B2
:1039900069E078E0209711F46AE178E0CE010E94B6
:1039A000F10F8C2FDF91CF910C94D51BCF93DF9328
:1039B000EC010E94C11CCE01DF91CF910C94181B29
:1039C000CF93DF93EC018881833061F48FE090E046
:1039D0000E94D61C8FE090E00E94D61C8FE090E001
:1039E0000E94D61C8881843030F08FE090E0DF9117
:1039F000CF910C94D61CDF91CF910895CF93DF9394
:103A0000EC018881833061F48EE090E00E94D61C46
:103A10008EE090E00E94D61C8EE090E00E94D61CC2
:103A20008881843030F08EE090E0DF91CF910C946B
:103A3000D61CDF91CF910895CF93DF93EC0188815D
:103A4000833061F48DE090E00E94D61C8DE090E020
:103A50000E94D61C8DE090E00E94D61C88818430A4
:103A600030F08DE090E0DF91CF910C94D61CDF9187
:103A7000CF910895CF93DF93EC018881833061F477
:103A80008BE090E00E94D61C8BE090E00E94D61C58
:103A90008BE090E00E94D61C8881843030F08BE06F
:103AA00090E0DF91CF910C94D61CDF91CF910895D7
:103AB000CF93DF93EC018881833061F48DE290E055
:103AC0000E94D61C8DE290E00E94D61C8DE290E010
:103AD0000E94D61C8881843030F08DE290E0DF9126
:103AE000CF910C94D61CDF91CF910895CF93DF93A3
:103AF000EC018881833061F487E290E00E94D61C5B
:103B000087E290E00E94D61C87E290E00E94D61CDB
:103B10008881843030F087E290E0DF91CF910C947F
:103B2000D61CDF91CF9108950E94281080930B013D
:103B3000823049F018F4813071F00895833039F003
:103B4000853061F008958FE490E00C94C11C8FE003
:103B500090E00E94C11C8FE090E0F7CF8FE090E0F2
:103B60000E94D61CF8CF0E94281080930B0182304F
:103B700049F018F4813071F00895833039F08530C0
:103B800061F0089582E590E00C94C11C8EE090E015
:103B90000E94C11C8EE090E0F7CF8EE090E00E9482
:103BA000D61CF8CF0E94281080930B01823049F078
:103BB00018F4813071F00895833039F0853061F068
:103BC000089581E590E00C94C11C8DE090E00E9486
:103BD000C11C8DE090E0F7CF8DE090E00E94D61CF4
:103BE000F8CF0E94281080930B01823049F018F41E
:103BF000813071F00895833039F0853061F0089597
:103C000080E590E00C94C11C8BE090E00E94C11C08
:103C10008BE090E0F7CF8BE090E00E94D61CF8CFCD
:103C20000E94281080930B01823049F018F48130F3
:103C300071F00895833039F0853061F008958EE297
:103C400090E00C94C11C8DE290E00E94C11C8DE2BA
:103C500090E0F7CF8DE290E00E94D61CF8CF0E9452
:103C6000281080930B01823049F018F4813071F0F4
:103C70000895833039F0853061F0089587E590E04C
:103C80000C94C11C87E290E00E94C11C87E290E086
:103C9000F7CF87E290E00E94D61CF8CF4F925F9258
:103CA0006F927F928F929F92AF92BF92CF92DF924C
:103CB000EF92FF920F931F93CF93DF9300D000D02A
:103CC0000F92CDB7DEB77C01DC0113968D919C91EC
:103CD0001497892B41F01C911196DC90812F8D2136
:103CE0008F3F09F0AEC70F900F900F900F900F907D
:103CF000DF91CF911F910F91FF90EF90DF90CF90C8
:103D0000BF90AF909F908F907F906F905F904F90FB
:103D100008950E94810F082F682F89819A810E943F
:103D2000C607E12FF0E0B6E0DB9EE00DF11D1124A7
:103D300024E5029FE00DF11D1124EE0FFF1FEA554F
:103D4000FD4F05911491D70112968C91811143C0BA
:103D50008091B40681117FC0F70182810A32FDE5AE
:103D60001F0709F495C00B322DE5120709F47DC138
:103D7000033C3CE5130709F09EC18823E9F09091CC
:103D8000A10180916F069F3F09F08EC11092A101A1
:103D90008F7E80936F0640E060E080E00E94110912
:103DA00040916F0650917006609171067091720695
:103DB0008FE090E00E94D43380915B06877009F415
:103DC00092CFD70112968C91882309F48CCF82E090
:103DD0000E94941788CF809192018F3F09F4B8CF49
:103DE0007EE0C72E71E0D72EB12CA12C992493949C
:103DF00080919201082E000C990B8A159B050CF4FA
:103E0000A7CFF60186818823F9F0818592858017F6
:103E1000910739F48091E4059091E50580179107A9
:103E200099F0D6011F969C921F971C961C930E9397
:103E30001B9751968C91811103C0C6010E945C08AA
:103E4000C60106960E947D08BFEFAB1ABB0AE6E1E9
:103E5000CE0ED11CCDCF8091B506882309F47CCF3E
:103E6000D70112968C911982811110C082E18A8348
:103E7000D7018C918B8311968C918C838EEF8D83DF
:103E800065E0CE0101960E944A0566CF81E1EFCF41
:103E90008823C9F180916F0691E0980F9770887F11
:103EA000953008F4892B80936F0680916F06877098
:103EB000AFEF8A9FC00111249595879595958795B9
:103EC0009927909389008093880090938B0080932A
:103ED0008A0090938D0080938C0040916F065091E2
:103EE000700660917106709172068FE090E00E94FA
:103EF000D4336091B0067091B1068091B206909172
:103F0000B3060E945910C80197558F3F910511F0D3
:103F100008F047C020919201022E000C330B2817A5
:103F2000390714F480939201D70112962C911297BD
:103F300036E1389F5001399FB00C1124F501E25F42
:103F4000FE4F6F01208B12969C918681992309F474
:103F5000EFC0128701878F5F86830E94E916D60122
:103F60001E969C938E931D9780915F0617968C9357
:103F7000179780915D0690915E06892B18968C9319
:103F80001897ED91FC911197309739F054966D91F7
:103F90007C91C5018C5E9E4F09951093E5050093B9
:103FA000E405D70112968C91882309F4CEC09801BC
:103FB000225E3C452530310508F0C7C06EE1600F38
:103FC00060936B068CE090E00E94C233D70112969A
:103FD0009C91992309F447C61092E8060230BCE58B
:103FE0001B0708F44EC60631ECE51E0738F09801B1
:103FF0002B5F3C452730310508F043C60E94BF11B6
:1040000090938206809381060F30FCE51F0709F428
:1040100017C208F098C108303CE5130709F4FAC14B
:1040200008F06BC104309CE5190709F4E7C108F0FA
:1040300053C10230BCE51B0709F4DCC18091810645
:10404000826003301C4509F46AC1609181061091B9
:10405000820684E090E00E94C233612F81E290E00A
:104060000E94C2330E94D717A7CE882309F44BCFF2
:1040700090916F06892F877F93FF886080936F06EA
:1040800083FF05C040E060E080E00E94110940919C
:104090006F065091700660917106709172068FE004
:1040A00090E00E94D4332FCF9FEF9093A1018061C5
:1040B00080936F0675CE0D32BDE51B0709F160F4E4
:1040C0000C32FDE51F0709F01ECF882309F474CEDA
:1040D00081E00E94A91470CE0E322DE51207E9F09E
:1040E0000F323DE5130709F00ECF882309F464CEA3
:1040F00081E00E94A9144FEF6FEF8BE190E00AC0BE
:10410000882309F459CE81E00E94A9144FEF6FEF84
:104110008CEA90E00E9431144FCE882309F44CCEF3
:1041200081E00E94A91440E86FEF86E590E0F2CFAD
:10413000882309F436CF8189882309F432CFC50159
:104140008C5E9E4F0E947D082CCF17FF8BC088236A
:1041500009F43CCFE0918306F091840680E030972B
:1041600021F00190F081E02D099586958170809372
:10417000E70590916B06913029F4882319F089E3C3
:104180000E944A1C80915E068093E60510925E06AE
:1041900080916B06813009F441C08823D9F18230C7
:1041A00009F441C0843009F445C0EFE3FCE93197DC
:1041B000F1F700C000005801E894B7F85CE0C52EA4
:1041C000D12C95010C2C02C0369527950A94E2F764
:1041D0002F7087E290E029F0822F90E02A3078F566
:1041E0004D960E94D61CF4E0CF1AD1082CEFC216CF
:1041F0002FEFD20631F780916B06813031F18823A1
:1042000001F18230F1F0843059F18091E60580931C
:104210005E06DCCE82EE0E94D51BC7CF88E193E01C
:104220000E94D61CC2CF82EE0E94D51B87E50E9459
:104230004A1CBBCF86EE0E944A1C88E1F8CF069745
:10424000D0CF82EE0E94E61AE0CF8CE20E944A1C98
:104250008091E7058823C9F289E30E944A1CD5CFE3
:1042600088E2FBCF043F3CE5130739F1A0F4093D98
:104270009CE51907F1F00A3DACE51A0751F1083D3C
:10428000BCE51B0709F0A2CE26E241EE61EEC701B4
:104290000E945D1C91CD063FECE51E07B1F088F051
:1042A000073F2CE5120709F091CE27E245EE66EEB6
:1042B000EECF27E245EE65EEEACF26E241EE60EE74
:1042C000E6CF27E245EE64EEE2CF26E241EE62EE73
:1042D000DECF28E241E0EFCF809181068061063099
:1042E000FCE51F07E1F080918106886007301C45DE
:1042F000B0F080918106806212C00B303CE513075C
:1043000009F496C078F409309CE5190709F486C0D1
:10431000809181068C600A301C4509F096CE80930E
:10432000810693CE809181068B7F0D30BCE51B0703
:10433000B1F3809181068D7F0E301C4580F3809112
:104340008106877FECCF0B3FFCE51F0709F45AC0BD
:1043500048F502313CE5130709F47AC060F40031F6
:104360009CE5190709F470C0809181068F7B0131AB
:104370001C45A9F26ACE0431BCE51B0709F476C0DE
:1043800008F46CC005311C4509F05FCE80918106B0
:1043900082FB992790F921E0922790FB82F990FB0C
:1043A00083F9BDCF0E3F2CE5120709F445C070F428
:1043B0000C3F8CE5180751F1809182068E7F0D3FEE
:1043C0001C4509F042CE809382063FCE0115ADE533
:1043D0001A0709F447C040F101301D4509F035CEF8
:1043E00080918206982F909591708E7F892B90FBFB
:1043F00081F9E9CF80918106816091CF809181061A
:1044000084608DCF809182068160DDCF80918206AD
:104410008260D9CF80918106806481CF0E94D717B6
:104420008091810680687BCF809182068360CBCFAC
:10443000809181068E7F73CF809182068D7FC3CF5E
:10444000809181068F7E6BCF809181068F7D67CFB3
:104450000E94D717809181068F7761CF8091810666
:10446000837F5DCF809182068C7FADCF0E94D7176E
:1044700090918106892F97FB87F9805850CF992317
:1044800009F4A8C080915E068272F801E35CFC45E5
:10449000E431F10508F049C0E659FB4C0C940132B7
:1044A0008091ED0691E089278093ED061092A3019B
:1044B0000E94291481CC46E954E16FE974E10E941D
:1044C000C7087ACC4FE954E166E974E1F8CF4EE6CB
:1044D00054E167E774E1F3CF47E754E16EE674E136
:1044E000EECF46E554E162E674E1E9CF42E654E1FD
:1044F00066E574E1E4CF4EE354E16AE474E1DFCFB2
:104500004AE454E16EE374E1DACF45EB54E16BEA3F
:1045100074E1D5CF4BEA54E165EB74E1D0CF85E08F
:10452000D8CD8DE0D6CD82E1D4CD0F3DFCE51F077F
:1045300009F446C009302DE5120709F444C00115FD
:104540001C4509F047C00E94D7178FEF94E3ACE0F9
:1045500081509040A040E1F700C00000F89481E055
:104560008093E00080E28093D8001092C900EFE1D0
:10457000FEE43197F1F700C000001DBA1092680008
:104580001CBC10BE1FBA10927A0010926E001092DE
:104590006F0010927100109272001092C900109278
:1045A000BC0014B817B81AB81DB810BA1092BC00E5
:1045B00015B818B81BB81EB811BA0C94003FFCCB44
:1045C0000E94CD11F9CB8091B60691E089278093A6
:1045D000B606F2CBF70100811181992309F446C098
:1045E000C8010E94810FD82E682FC8010E94C607FB
:1045F000B8018D2D0E94DE0D082FD92EB82ED701BF
:104600001596CC901597C2944FE0C42212961C9137
:10461000111110925D0680915B068770C1F0112325
:10462000B1F08D2D807F803449F090E2900F98306A
:1046300070F0803619F4B6EFBB1649F082E00E94A4
:10464000941780915B068770AA24A3948111A12CF2
:104650009D2C92943FE09322EBE0E91508F43EC0D4
:10466000E92DF0E0E258FB4C0C940132C8010E94A5
:104670009D07D82EBDCFFD2DFF70CF2E8D2D807FB5
:1046800019F0C29420EFC2221123C9F0CC2069F0A6
:1046900080E2800F883010F0B1100BC080915E0670
:1046A000C82AC0925E060E945807802F0E94D51B20
:1046B00015C080915D06C82AC0925D06F4CF802F98
:1046C0000E94E61ACC2051F0005E083010F0B110C4
:1046D00056C08C2D0E9451070E945807292D285042
:1046E000330B2430310510F40E945008112379F067
:1046F0008D2D807F803619F436EFB31641F080910E
:10470000E905823009F095C283E08093E905AA208B
:10471000B1F080915B0680FD12C0D70112961C9209
:104720008595859585950E94AC17C7010E944E1E00
:1047300080915B068595859585950E94711785E02A
:10474000F701DE01119601900D928A95E1F78981BA
:104750009A810E949D079A81E981F0E0B6E09B9FD3
:10476000E00DF11D112424E5829FE00DF11D1124BF
:10477000EE0FFF1FEA55FD4F85919491B4CAC09486
:1047800080915D06C822C0925D06A6CF2D2D2F70A8
:10479000822E8D2D807F803219F0829490EF8922B5
:1047A000BB2041F031E0B31631F1112379F1CC2077
:1047B00041F17BCF112391F090915F06892F8829D9
:1047C000C11003C00E941A0889CFA1E0CA12FACF13
:1047D000981709F483CF80935F0680CFC11006C07D
:1047E0000E944B07882D0E94130878CFB1E0CB16AA
:1047F00009F474CFF5CF112331F0E1E0EC1508F4A2
:104800006DCF882DDFCFC11069CFECCFCC2051F315
:10481000F9E3BF1209C02FEF37EE83E0215030409B
:104820008040E1F700C00000802F0E94E61A56CFBA
:104830008D2D86958695837069F0813009F04ECF75
:10484000802F9D2D9370111102C090E080E00E9496
:10485000240844CF802F9D2D9370111102C090E049
:1048600080E00E943A083ACF802F112329F00E945D
:1048700028060E94F51632CF0E946105FACF8D2DD1
:10488000837009F067C0111129CF202F229526953A
:104890002770220F220F402F4F7050E070E060E031
:1048A000022E04C0440F551F661F771F0A94D2F7CB
:1048B00080E090E0DC0104FF0FC08FE090E0A0E01A
:1048C000B0E004C0880F991FAA1FBB1F2A95D2F71A
:1048D00080959095A095B0952D2D269526952370C1
:1048E000223029F1D8F44090600650906106609023
:1048F000620670906306213069F0842B952BA62BFD
:10490000B72BBC01CD0164217521862197210E941E
:10491000CD17E4CE44295529662977292A013B0180
:10492000482A592A6A2A7B2AC301B201F0CF842B74
:10493000952BA62BB72B4090600650906106609097
:10494000620670906306BC01CD016425752586253D
:104950009725DDCF8695112311F08D2D8170882349
:1049600009F4BCCE202F229526952770220F220F06
:10497000402F4F7050E070E060E0022E04C0440F02
:10498000551F661F771F0A94D2F780E090E0DC0184
:1049900004FF0FC08FE090E0A0E0B0E004C0880FFB
:1049A000991FAA1FBB1F2A95D2F780959095A095B5
:1049B000B0952D2D269526952370223029F1D8F417
:1049C0004090B0065090B1066090B2067090B30669
:1049D000213069F0842B952BA62BB72BBC01CD0180
:1049E00064217521862197210E94361777CE4429AC
:1049F0005529662977292A013B01482A592A6A2A1A
:104A00007B2AC301B201F0CF842B952BA62BB72BA9
:104A10004090B0065090B1066090B2067090B30618
:104A2000BC01CD016425752586259725DDCF2D2D6B
:104A30002F70C22E112329F0822F0E94AC17802FD5
:104A4000C1CE802F0E9413088C2D0E94711746CE74
:104A5000802F32EFB31609F450C03B1578F090EF79
:104A6000B91621F1A1EFBA1609F43FC0112309F4D8
:104A700068C0C1101ACE8D2D8F713CC0B3EFBB162C
:104A800009F440C0E4EFBE12F1CF112309F44EC087
:104A90000D2D0F71802F0E94AC1728E0029FC001DE
:104AA0001124836080935B06802F24C01123C1F002
:104AB000C11014CE2D2D2F7161E070E080E090E0E8
:104AC00004C0660F771F881F991F2A95D2F7409060
:104AD000B0065090B1066090B2067090B306A2CFB7
:104AE000F1E0FC1508F4FACDE5CF8D2D8F7111237F
:104AF00009F4ABCF0E94AC17F1CD8D2D8F7111232E
:104B0000C9F3A3CF60E070E0CB01112309F46CCFAF
:104B10002D2D2F7161E070E080E090E004C0660F01
:104B2000771F881F991F2A95D2F75ECF81E00E94D8
:104B3000941731E03C1508F0D1CD82E00E94941723
:104B4000CDCDCC2059F0893309F06ECE8FEF97EEA2
:104B5000A3E081509040A040E1F764CE8D2D8F718D
:104B600074CFE0E1E00FE73008F03EC0F0E0E65738
:104B7000FB4C0C940132112309F4B0CD8091EB056C
:104B800091E089278093EB05A9CD1093EB05A6CD85
:104B900081E08127F7CF1111A1CD81E0F3CF111171
:104BA0009DCD1092EB059ACD112321F082E08093E8
:104BB000E905F3CF8091E905823021F481E080930B
:104BC000E9058CCD833009F089CD1092E905E9CF54
:104BD000112339F08091EA05882381F21092EA05C9
:104BE0007DCDCC2059F27ACD8091EA05CC20A9F078
:104BF000882341F08091EB0591E089278093EB05B4
:104C00001092EA05802F111151CD0E94E61A86E01C
:104C1000F70111928A95E9F761CD882309F45ECDF9
:104C200011115CCD8091EB0591E089278093EB0514
:104C3000D5CF813009F06BCD1092E9051092EB05CC
:104C400066CD85E0F701DE01119601900D928A95FF
:104C5000E1F7F701228189819A8121115AC80E94C6
:104C60009D07082F5EC806311C4509F0B3CC809122
:104C7000E80569E2811165E388E494E00E949F06FB
:104C800014C006312CE5120709F0F9CB80915E06BD
:104C90008A7A91E009F490E09093E80569E2811145
:104CA00065E388E494E00E94C9060E94580784C81E
:104CB0001F93CF93DF938091F105807FA9F48091BA
:104CC000EE05882389F080912306D091F20560914A
:104CD000EC057091ED05A091EF05B091F005C62FA0
:104CE000C72316E0D81304C0DF91CF911F91089518
:104CF00090E0109711F0CF3F19F401968770F2CF32
:104D0000189F9001199F300D1124F901ED50FA4FB1
:104D100041814713F2CF40814613EFCF42814111C9
:104D2000ECCF438154814A1B5B0B483C510528F76B
:104D30008091F1058F7080618093F105F901E85051
:104D4000FA4F80818F70806180838CEE95E00E94A5
:104D50004E1EDF91CF911F910C94F407AF92BF923A
:104D6000CF92DF92EF92FF920F931F93CF93DF9337
:104D7000CDB7DEB761970FB6F894DEBF0FBECDBFDB
:104D80008C0185E0F801DE011D9601900D928A9557
:104D9000E1F7F80180819181E2802CEEA22E25E0DE
:104DA000B22E6091EF057091F0056115710509F45F
:104DB0003EC13091EC054091ED05232F24232F3F78
:104DC00009F435C1C380D480F090EE05F601E61BEE
:104DD000F70BFF2009F4FBC02091F105522F507F03
:104DE000E83CF10508F0BBC0511178C0FE2C491316
:104DF00021C038131FC0E1101DC02F702061209307
:104E0000F105C5010E944E1E8091F105F8018583D0
:104E10008F2D61960FB6F894DEBF0FBECDBFDF9128
:104E2000CF911F910F91FF90EF90DF90CF90BF90A7
:104E3000AF900895CD2829F0282F29232F3F09F07E
:104E400022C120E0F22FF170DF2E20FF3DC0209123
:104E500023064091F20556E0241315C08D879E87E6
:104E60008D859E850E94C30F292F22952F70223099
:104E7000F8F0243020F59F70F9F0F8019581907FCB
:104E8000D9F4D12C1FC030E0529FF001539FF00D98
:104E90001124ED50FA4F6181961306C0608186138C
:104EA00003C06281E61210C02F5F3F4F2770D4CF3E
:104EB0009F7011F0882329F3805E883010F3C801B9
:104EC0000E944E1EFD2CA4CFEE2009F4A1CF8091AC
:104ED000F10581608093F105F12C9ACF491312C03E
:104EE000381310C0E1100EC0F8012583C8010E94DC
:104EF0004E1E86E0F801ACEEB5E001900D928A9569
:104F0000E1F786CF8D879E878D859E850E94CD0F88
:104F1000882309F1EE20F9F08091F105803270F0DC
:104F20002091EC053091ED0538872F831986DB86BB
:104F3000CA868C87CE0107960E944E1E86E0F80135
:104F4000ACEEB5E001900D928A95E1F70E945826EB
:104F5000FF24F3945DCFC8010E944E1EF9CF51117A
:104F60000AC08CEE95E00E944E1E86E0F50111927B
:104F70008A95E9F7B1CF49130FC038130DC0E1107E
:104F80000BC0F8012583C8010E944E1E86E0F50182
:104F900011928A95E9F73CCF8D879E878D859E85F6
:104FA0000E94CD0F8823B9F2EE20A9F28091F1057D
:104FB000803220F22091EC053091ED053A8329836F
:104FC0001B82DD82CC828E83CE010196B5CFE83C78
:104FD000F105E0F6FE2CEE2009F4BDCF491316C012
:104FE000381314C08091F10580FD83CF982F907FF6
:104FF00009F47FCFF8018583903F09F477CF982F8C
:10500000907F905F8F70892B858370CF8D879E876F
:105010008D859E850E94CD0F811190CF8091F105E5
:1050200081608093F105C8010E944E1EF1CEEE20F2
:1050300009F491CF8D879E878D859E850E94CD0F27
:10504000F82E882309F487CF86E0F801ACEEB5E0AE
:1050500001900D928A95E1F78091EC059091ED0514
:105060000E94C30F92959F70963051F4863F41F095
:105070008091EB0591E089278093EB059093EA05F9
:105080000E945826C5CE21E02E25DCCE1F93CF935B
:10509000DF93CDB7DEB767970FB6F894DEBF0FBECC
:1050A000CDBF6D8B7E8B8F8B8E899F89892BE1F095
:1050B000852F84238F3F09F098C05FEF4FEF14C016
:1050C0003091EB05332309F44EC0E42FF0E036E0D5
:1050D000539FE00DF11D1124EE0FFF1FE558FD4F0A
:1050E00040815181822B8C931A8A198A4B8B5C8B5D
:1050F00085E0FE017396DE011D9601900D928A9562
:10510000E1F786E0FE013D96DE01179601900D92D3
:105110008A95E1F7CE0107960E94AE26811112C052
:1051200086E0FE013796DE01119601900D928A9578
:10513000E1F78A859B85892B29F08F8198858923C2
:105140008F3FC9F516E0809123069091F2058913EF
:1051500020C067960FB6F894DEBF0FBECDBFDF91BB
:10516000CF911F91089580958223BDCF96E0929FA5
:10517000D001939FB00D1124AD50BA4FFE0131966E
:1051800001900D929A95E1F78093F2050E94F40741
:10519000D9CF819FC00111248D509A4F0E94AE2615
:1051A0008823B9F28091230690E0019687709927B1
:1051B00080932306C8CF2091F20530E0C901019603
:1051C00087709927409123064817190679F60E949F
:1051D000D7171092F2051092230686E0ECEEF5E068
:1051E000DF011D928A95E9F7ADCF81E090E0042EB2
:1051F00001C0880F0A94EAF7A52FB0E0AA52BA4F6F
:105200002C913D8931115CCF322F38235BCF8F92A7
:105210009F92AF92BF92CF92DF92EF92FF920F9345
:105220001F93CF93DF938091930190919401892BE9
:10523000A1F0809169048F5F8093690481110DC092
:105240000E94EC1490E09093940180939301892B39
:1052500021F40E9445110E94D014F3E78F2EF6E04E
:105260009F2E740100E010E0E7E0CE2EC10E812FEA
:105270000E9463158C2D0E946315812F0E94B71523
:10528000E70199917E01D12C891729F0FE01319710
:105290008083DD24D3948C2D0E94B715F70196816D
:1052A000891709F47CC0868381E08D29082B0E9430
:1052B0008D101F5F1730C1F60E94E91660916B04D4
:1052C00070916C0490936C0480936B0420916A0439
:1052D00030E0261B370B820F931F6BEF70E00E94AC
:1052E000D931E82E392F182F80936A04F0906E047C
:1052F000FF2009F456C310926E04E0916906F09104
:105300006A06AF01425F5F4F20E07BEFB72E6BEF85
:1053100070E0A191AB3FA1F0CA2ED12C8E2D932F1E
:105320001A1708F43EC08C199D09092E000CAA0B0F
:10533000BB0B4E97A105B105D0F1DF011197BC92CF
:10534000E417F50731F720936E04011102C0211113
:105350002AC310926D04A0916906B0916A069091DB
:105360006E04E7E8F6E045E956E080E03191E401BB
:1053700029914E01321751F03C913B3FD1F41C93DF
:10538000BF0161507109EB01288391E011964E171E
:105390005F0761F790936E0480936D0408C380E00B
:1053A00084CFDB01AC19BD098A0F9B1FBECF2F2D07
:1053B000C7CF81E0EBCFF29EF001F39EF00D1124F8
:1053C000E25FFE4FC288D388C114D10419F468EC9F
:1053D000C62ED12CF29EE001F39ED00D1124C25FA7
:1053E000DE4F8E818823B9F08D859E850E949006C0
:1053F000C816D90680F41F9D600111248989811186
:1054000005C0C601825F9E4F0E945C08C6018C5E8B
:105410009E4F0E947D081F5F212F30E080919201F6
:10542000082E000C990B821793072CF6C8C2109215
:10543000A0014093E9065093EA066093EB0670934F
:10544000EC0681E08093A301E8C280910D01C1E0E8
:1054500018130BC02091ED06237080910C0190E091
:10546000C1E02817190609F4C0E0C170C093A20179
:10547000193140F4E12FF0E0EF56FB4C0C9401326F
:10548000C11102C0C0E027C040E060E080E00E949F
:105490001109F8CF8091A001C82FCC0FCC0FC80FF5
:1054A00045E0F42EFC0EEF2CD0E3DF1510F430E3D2
:1054B000E32E6091EE067091EF068091F0060E9457
:1054C000820BD62EC72EB82ED0E0CE15B0F0C1E09C
:1054D000FFE2FF15B8F28091A0018F5F8093A001D9
:1054E000C1119BC282E08093A3018091A20181112E
:1054F00094C2111192C283E0A5CFFE01E95EFB4F79
:1055000080819091A101892331F02B2D4D2D6C2D9F
:10551000CE010E9413092196D8CF8091A001C82FF7
:10552000CC0FCC0FC80F25E0F22EFC0EEF2C20E3A1
:105530002F1510F490E3E92EC090EF06D090F006FE
:10554000D091EE066D2F7C2D8D2D0E94820BB62EF4
:10555000A72E982E6091F1066D0F7C2D8D2D0E9447
:10556000820BD62EC72E882ED0E0CE1530F0C1E0AB
:105570008FE28F1508F0AFCF85CFFE01E95EFB4FBC
:1055800090818091A101892359F0282D4D2D6C2DFA
:1055900090FD03C0292D4B2D6A2DCE010E941309C9
:1055A0002196E3CF8091A001C82FCC0FCC0FC80F5C
:1055B00085E0F82EFC0EDF2C90E39F1510F4D0E36D
:1055C000DD2EC090EF06B090F0062091F106B0E419
:1055D000EB2E3E2D329F312D1124E32ED0E0CD1540
:1055E00030F0C1E09FE29F1508F075CF4BCFFE0170
:1055F000E95EFB4F80819091A1018923B9F0FE0102
:10560000EE0FFF1FE854FC4F808182958F706091F0
:10561000EE068E9D600D11247C2D8B2D0E94820B39
:10562000462F282F672FCE010E9413092196D7CF2E
:105630008091A001C82FCC0FCC0FC80FE5E0FE2E43
:10564000FC0EDF2CD0E3DF1510F470E3D72EC090F2
:10565000EF06B090F0062091F10660E4E62E3E2DB4
:10566000329F312D1124E32ED0E0CD1508F0B9CFB3
:10567000FE01E95EFB4F80819091A1018923D9F061
:10568000FE01EE0FFF1FE954FC4F6081E69EB00162
:10569000112455E0759567955A95E1F78091EE06CE
:1056A000680F7C2D8B2D0E94820B462F282F672F91
:1056B000CE010E9413092196D8CF8091A001C82F56
:1056C000CC0FCC0FC80F35E0F32EFC0EEF2CD0E33F
:1056D000DF1510F420E3E22ED090EE06D091EF0615
:1056E000C090F0066091F10666956695669580918A
:1056F000E9069091EA060E94780B0E94010B8058FF
:1057000087FD8195880F282F3C2D239F212D112463
:10571000822F6D2D7D2F0E94820BD62EC72EB82E84
:10572000D0E0CE1508F05DCFFE01E95EFB4F808131
:105730009091A101892331F02B2D4D2D6C2DCE019F
:105740000E9413092196EDCF8CE09AE00E94510D42
:10575000C82FC1CE82EE99E0F9CF83EE9AE00E9485
:10576000F50CF6CF84EC9AE0FACF89EA9AE00E9431
:10577000780CEECF8DE89AE0FACF80EE99E0E6CF94
:1057800087ED99E0E3CF8EEC99E0E0CF85EB99E0EF
:10579000DDCF87EA99E0EBCF80E59BE0E0CF8CE7B7
:1057A0009AE0DDCF88E69AE0E2CF8AE799E00E94AE
:1057B000160CCECF8CE499E0FACF85E199E0F7CFD3
:1057C000C1111EC06091F10620E1620F08F46FEF75
:1057D0008091E9069091EA060E94780B6AE070E0F9
:1057E0000E94D931892B09F04DCE0E94533260E3DB
:1057F00070E00E94ED316091A1010E94E3136BCE35
:105800008091A001C82FCC0FCC0FC80F95E0D92EE6
:10581000DC0E8D2DD0E3DD1508F480E3D0E0E82E1A
:10582000F12CCE15DF0534F0C1E0EFE2ED1508F004
:1058300052CE28CE6091A101CE010E94E3132196A1
:10584000F0CFC1111EC06091F10620E1620F08F493
:105850006FEF8091E9069091EA060E94780B65E06F
:1058600070E00E94D931892B09F00CCE0E9453328E
:1058700060E370E00E94ED316091A1010E94C113CC
:105880002ACE8091A001C82FCC0FCC0FC80F85E085
:10589000D82EDC0E8D2DF0E3FD1508F480E3D0E06A
:1058A000E82EF12CCE15DF0534F0C1E02FE22D15E6
:1058B00008F011CEE7CD6091A101CE010E94C11385
:1058C0002196F0CF10930D018091ED0683708093A7
:1058D0000C010E946D120FCE4091E9065091EA062C
:1058E0006091EB067091EC062FB7F89480916406F6
:1058F00090916506A0916606B09167062FBF841B44
:10590000950BA60BB70B4A97A105B10508F485C006
:105910001092A30182C09170892B09F490C08091EC
:105920007404909175048130984780F01092B60607
:105930006091B0067091B1068091B2069091B30665
:105940000E9459101092750410927404809174048E
:105950009091750401969093750480937404802F40
:10596000DF91CF911F910F91FF90EF90DF90CF903B
:10597000BF90AF909F908F9008950E94531066C083
:10598000892B69F310927504109274046091B0062B
:105990007091B1068091B2069091B3060E945910A1
:1059A000DECF0111D6CC80916D048111D2CC8091D3
:1059B000920110E056E1F52E8F3F09F02DCD8FB703
:1059C000F894409164065091650660916606709166
:1059D00067068FBF40936F04509370046093710407
:1059E000709372048091860610E0811108C0809146
:1059F000ED06182F137019F0182F16951695809133
:105A0000A301813009F421CD882309F410CD82301F
:105A100009F458CF833009F45FCF809174049091DA
:105A200075042091B606222309F4AACF009709F045
:105A300072CF0E944A100E9447100E944410C091E9
:105A40007304CC2309F499CF0E94471081E0C82742
:105A5000C093730464CFCDB7DEB7C955D1090FB673
:105A6000F894DEBF0FBECDBF84B7877F84BF0FB66B
:105A7000F894A895809160008861809360001092EE
:105A800060000FBE80E890E00FB6F894809361004C
:105A9000909361000FBE85B7806885BF85B7806829
:105AA00085BF0E945C030E9429048091E20084600B
:105AB0008093E20078948091DC068823A1F0109115
:105AC000E9001F709091EC00892F817090FD80E8B3
:105AD000182B1092E9008091E80083FD0E94EC17DA
